:100000000C942E020C944B020C944B020C944B0259
:100010000C944B020C944B020C944B020C944B022C
:100020000C944B020C944B020C94CF230C94A324FD
:100030000C94B31E0C944B020C944B020C944B0288
:100040000C944B020C944B020C944B020C944B02FC
:100050000C944B020C943A1F0C944B020C944B02E0
:100060000C944B020C944B020C944B020C944B02DC
:100070000C944B020C944B020C944B020C944B02CC
:100080000C944B020C944B020C944B020C944B02BC
:100090000C944B020C944B020C944B020C944B02AC
:1000A0000C944B020C944B020C944B020400050080
:1000B0000600C35CC45CC55CCA5CCB5CA85D000484
:1000C0007F3F1F643214643214783C1E1E140A05EC
:1000D0002223252628292A2C2D2F30323335363855
:1000E0003A3B3D3E4042434547494A4C4E505153AE
:1000F0005557595A5C5E6062646668696B6D6F71D2
:10010000737577797B7D7F81838587898A8C8E90D3
:10011000929496989A9C9E9FA1A3A5A7A8AAACAEDC
:10012000AFB1B3B4B6B8B9BBBCBEBFC1C2C3C5C61C
:10013000C7C9CACBCCCDCED0D1D2D2D3D4D5D6D7C5
:10014000D7D8D9D9DADADBDBDBDCDCDCDCDCDDDD03
:10015000DDDDDCDCDCDCDCDBDBDBDADAD9D9D8D7F3
:10016000D7D6D5D4D3D2D2D1D0CECDCCCBCAC9C795
:10017000C6C5C3C2C1BFBEBCBBB9B8B6B4B3B1AFCC
:10018000AEACAAA8A7A5A3A19F9E9C9A989694926C
:10019000908E8C8A89878583817F7D7B7977757343
:1001A000716F6D6B6968666462605E5C5A59575521
:1001B0005351504E4C4A4947454342403E3D3B3ADD
:1001C0003836353332302F2D2C2A29282625232264
:1001D000FFAA7F5540000101010101010101010257
:1001E00002020202020202020303030303030303E7
:1001F00004040404040404050505050506060606B2
:1002000006070707070708080808090909090A0A6D
:100210000A0B0B0B0C0C0C0D0D0D0E0E0E0F0F0F11
:10022000101011111112121313141415151616179C
:1002300017181819191A1A1B1B1C1D1D1E1E1F200A
:1002400020212222232424252626272829292A2B57
:100250002C2D2D2E2F30313232333435363738397C
:100260003A3B3C3D3E3F4041424344454647484976
:100270004A4C4D4E4F50515354555658595A5B5D48
:100280005E5F616264656668696B6C6D6F707273E6
:100290007577787A7B7D7E8082838587888A8C8E4D
:1002A0008F91939596989A9C9EA0A2A3A5A7A9AB7F
:1002B000ADAFB1B3B5B7BABCBEC0C2C4C6C9CBCD71
:1002C000CFD1D4D6D8DBDDDFE2E4E7E9EBEEF0F323
:1002D000F5F8FAFDFF2403720065007600650072F0
:1002E00000730065005F006D006F0075006E0074A4
:1002F000005F006C00650064000000180373006B71
:100300000065006C00650074006F006E006B006299
:1003100000640000000403090409023B000201001C
:10032000A0FA0904000001030101000921110100E4
:1003300001224000070581030800010904010001B2
:100340000300000009211101000122B60007058207
:10035000032000011201000200000008EDFE000071
:1003600000010102000105010902A1018502090144
:10037000A100050919012908150025019508750135
:1003800081020501093009311581257F9502750823
:10039000810609381581257F950175088106050CB0
:1003A0000A38021581257F950175088106C0C005B0
:1003B000010980A101850319012AB700150126B79B
:1003C00000950175108100C0050C0901A10185048B
:1003D00019012AA002150126A002950175108100BD
:1003E000C005010906A1018506050719E029E715E1
:1003F0000025019508750181020507190029EF15EF
:1004000000250195F075018102050819012905955E
:100410000575019102950175039101C00501090659
:10042000A101050719E029E71500250195087501C7
:1004300081029501750881010507190029FF150042
:1004400026FF009506750881000508190129059504
:100450000575019102950175039101C011241FBE1C
:10046000CFEFDAE0DEBFCDBF11E0A0E0B1E0ECE21B
:10047000FFE402C005900D92A83BB107D9F722E036
:10048000A8EBB1E001C01D92AE3DB207E1F70E94BA
:100490006F110C947E270C94000081E0089581E098
:1004A00008950E944F02089508950E9454020895ED
:1004B000A5E0B0E0EEE5F2E00C94E82649835A832B
:1004C0003091BB0189819A81311119C0662399F05D
:1004D000222389F00E947208182F682F89819A813F
:1004E0000E944E0869817A81812F0E94F70E25961D
:1004F000E3E00C9404270E946008182FF3CF0E94B9
:10050000720869817A81F1CFFC01262F40815181E7
:100510006281738184810E945802089581E0089568
:10052000CF93DF93EC0160E00E948402BE010E9441
:100530005502DF91CF9108950E94361008950E94D0
:100540003A10089508950E949D060E94A2022FEF7E
:1005500084E39CE0215080409040E1F700C000001F
:1005600008950E94A3020E945E1F08950E94A302A4
:100570000E946F1F08950F931F93CF93DF938C01F9
:1005800061E00E948402EC01B8010E9451028111D5
:1005900006C080E0DF91CF911F910F910895B801BF
:1005A000CE010E94E51C8823A1F3B801CE010E9470
:1005B0001A1B882371F3B801CE010E94571C8823AF
:1005C00041F3B801CE010E94261A882311F3F801E5
:1005D0008281882361F0CB35FDE5DF0701F158F416
:1005E000C115ECE5DE0791F0CF3DDC4591F0C80187
:1005F0000E944D02CFCFCD358DE5D80769F090F040
:10060000C83ADD45A1F70E94B602C3CF0E94B102ED
:10061000C0CF0E94380DF7CF0E94720CE8CF0E9425
:100620007C0CE5CF0E94800CE2CF0E94901E0E94BD
:1006300036030E949C1808950E943A030E94731981
:100640000E94951E089508950E942303089581E055
:1006500008950E94270308950895CF93C82F0E94FC
:1006600024038C2F0E942903CF91089580E00E94DB
:100670002D0308950E94411D0E942D0308950E949C
:10068000411D9091BA01981721F08093BA010E9400
:100690002D030895ABE0B0E0E0E5F3E00C94E9262B
:1006A0004F83588769877A878B8761110E94BD0BBA
:1006B0001E821D8285E0FE013796DE0111960190B3
:1006C0000D928A95E1F78C819D81892B61F4498196
:1006D0005A816B817C818D819E810E94E60A2B96D6
:1006E000E2E00C94052789819A8189238F3F79F371
:1006F000CE0101960E948E028111E9CFF0CFFC015C
:10070000808191810E94AC080895CF93C82F8823DF
:10071000B9F08CEF8C0F813AA8F46C2F8091000116
:10072000909101010E94B61D882329F08C2F0E9410
:100730007D0B0E94DE0B8C2F0E94750B0E94DE0B3E
:10074000CF91089580E28C0F883048F4C77081E023
:1007500001C0880FCA95EAF70E94A00BEFCFEBE526
:10076000EC0FE33040F4F0E0E85AFE4F808190E077
:100770000E94761DE5CFE8E5EC0FE73150F4F0E09C
:10078000EE0FFF1FE65DFE4F808191810E948C1D60
:10079000D7CFCD3EA8F28C2F0E94F3110E94C61233
:1007A000CFCF882379F19CEF980F913A28F40E94DB
:1007B0007D0B0E94DE0B089590E2980F983050F464
:1007C000877091E001C0990F8A95EAF7892F0E94FE
:1007D000A60BEFCF9BE5980F933028F490E080E0D4
:1007E0000E94761D089598E5980F973128F490E0BF
:1007F00080E00E948C1D08958D3E20F00E944D12D5
:100800000E94C61208951F93CF93DF93182FEB0118
:100810000E948503209739F4812F0E94D103DF9134
:10082000CF911F9108958FE99FE00197F1F700C0E4
:1008300000002197EFCF70E060E0893311F460E5AC
:1008400070E00E9403040895882321F00E94A00B09
:100850000E94DE0B0895882321F00E94A60B0E94BF
:10086000DE0B0895B0E0A0E0E8E3F4E00C94E226AB
:100870006C01D62FC72FFC011281F580F2949FE006
:10088000F9220E94960BE82E8823B9F0E12E11235D
:10089000A1F08C2F807F803421F080E28D0F883092
:1008A000D0F08091A60282FF16C082E00E94410C27
:1008B0000E94960B91E0E82EE926BC2EB2948FE0C0
:1008C000B822FBE0FB1508F468C0EB2DF0E0E0581F
:1008D000F84D0C94A226E12CF0CF0C2F0F70C07FA6
:1008E00011F00295007F112399F0002359F080E266
:1008F0008D0F883010F0D11107C0802F0E94A00BFF
:100900000E94DE0B8D2F41C0802F0E94B00BF8CFCC
:100910008D2F0E94D103002309F43FC080E28D0F88
:10092000883010F0D11104C0802F0E94A60B03C0A4
:10093000802F0E94B60B0E94DE0B2FC00C2F0F7071
:10094000C07FC03211F00295007FDD2381F0D130ED
:1009500009F463C0112309F46DC0FF2009F463C0DA
:10096000F601858180FFCECF8F7085835CC080913A
:10097000A60282FD33C0112359F0002329F0802FF5
:100980000E94A00B0E94DE0B80E00E94850305C040
:1009900080E00E94D1030111C7CFEB2DE850FF0B7F
:1009A000349720F40E94411D0E942D03EE2089F00F
:1009B0000E94920B80FD0DC0F60112820E948C0BEA
:1009C0000E945607C6010E945D060E948C0B0E9481
:1009D0007807CDB7DEB7E9E00C94FE26112389F045
:1009E000F11006C00E94C00B802B0E942404D5CFBA
:1009F00021E0F212F7CF0E94C00B802B0E94C70BA0
:100A0000CCCFF11006C00E94D40B802F0E942B0483
:100A1000C4CF31E0F31609F2F6CF112331F085E0AF
:100A20008F1508F4BACF802FE0CF94E09F1508F41B
:100A3000B4CFEBCFFF2049F3D93349F4FFEF27EED2
:100A400033E0F15020403040E1F700C000008D2F2E
:100A50000E94D103A2CF8C2F86958695837069F072
:100A6000813009F09ACF8D2F9C2F9370111102C005
:100A700090E080E00E948C1D90CF8D2F9C2F937072
:100A8000111102C090E080E00E94761D86CF8D2F6C
:100A9000112329F00E94F3110E94C6127ECF0E94FA
:100AA0004D12FACF8C2F837009F041C0111175CF10
:100AB0004D2F429546954770440F440F0D2F0F70F0
:100AC00010E030E020E0042E04C0000F111F221FB0
:100AD000331F0A94D2F760E070E0CB01D4FF0FC05F
:100AE0006FE070E080E090E004C0660F771F881F21
:100AF000991F4A95D2F76095709580959095C69507
:100B0000C695C370602B712B822B932BC23049F09A
:100B100058F4C13019F00E9401073FCF0E94EE0641
:100B20003CCF0E94140739CF0E94EB0636CF869542
:100B3000112311F08C2F8170882309F42ECF4D2FB3
:100B4000429546954770440F440F0D2F0F7010E0EB
:100B500030E020E0042E04C0000F111F221F331FBD
:100B60000A94D2F760E070E0CB01D4FF0FC06FE0D1
:100B700070E080E090E004C0660F771F881F991F27
:100B80004A95D2F76095709580959095C695C695D3
:100B9000C370602B712B822B932BC23049F058F419
:100BA000C13019F00E94D107F8CE0E94BE07F5CEE1
:100BB0000E94E407F2CE0E942D07EFCECF701123E2
:100BC00029F08C2F0E9456078D2F0FCF8D2F0E945A
:100BD0002B048C2F0E947807E0CED23F51F160F4B5
:100BE000D03FB9F0D13F81F0112309F449C0F11091
:100BF00089CE8C2F8F7121C0D33F11F1D43FA1F743
:100C00008091A60282FD26C08C2F8F71112311F3D3
:100C100014C0112349F084E08F1508F4BECE8C2F48
:100C20008F710E949C07B9CE95E09F1508F4B5CE50
:100C3000F6CF8C2F8F711111CDCF0E945607ADCEFC
:100C4000112329F08C2F8F710E944007A6CE0E949D
:100C50003A07A3CE112349F0CF718C2F0E9456077B
:100C600063E08C2F0E94230C98CE81E00E94410CFF
:100C7000E1E0EF1508F091CE82E00E94410C8DCEAC
:100C8000F110DACE8C2F8F71A5CF0F931F93CF93D6
:100C9000DF93EC01688179818A810E94B7088C0119
:100CA0000E94F7070E94EA06B801CE010E943204B2
:100CB000DF91CF911F910F910895CF93DF93EC01B6
:100CC0008B819C81892B29F08881998189238F3F91
:100CD00051F4DF91CF910895CE010E944506CE01D7
:100CE0000E949002F6CFCE010E94BB028111F4CF88
:100CF0000E94960B882369F38A81882351F380919F
:100D0000A60282FFE6CF82E00E94410CE2CF90E093
:100D100080E00E94761D90E080E00E948C1D0E9481
:100D2000BD0B0E94DE0B0E94D7130E94C6120895CD
:100D30000E94850B0E94870608950E94AD0B0E94B9
:100D40009806089592959F70963091F058F4925FAE
:100D50009F70923058F4803F19F030F4883E30F4A0
:100D600081E008959A5FF4CF843FD1F380E0089545
:100D7000883EB0F3813FD1F7F3CFFC0180819181B0
:100D80000E94AC080E94A2060895A5E0B0E0EBEC3A
:100D9000F6E00C94E9262596E2E00C940527A6E0FF
:100DA000B0E0E5EDF6E00C94E9262696E2E00C943E
:100DB000052708950E94D90608950E94DA066093D7
:100DC000CA017093CB018093CC019093CD010E9416
:100DD0008706089508950E94DD0608950F931F93D6
:100DE0000091CA011091CB012091CC013091CD012D
:100DF000602B712B822B932B0E94DD061F910F918C
:100E000008950F931F930091CA011091CB01209177
:100E1000CC013091CD0160237123822393230E9462
:100E2000DD061F910F9108950F931F930091CA0142
:100E30001091CB012091CC013091CD016027712719
:100E4000822793270E94DD061F910F9108950E942B
:100E5000D90608950E94270708950E942A076093E3
:100E6000C6017093C7018093C8019093C9010E9485
:100E70008706089560E070E0CB010E942D07089579
:100E80000F931F9341E050E060E070E08A019B0106
:100E900004C0000F111F221F331F8A95D2F7C9010A
:100EA000B8010E942D071F910F9108950F931F9372
:100EB00041E050E060E070E004C0440F551F661F41
:100EC000771F8A95D2F78091C6019091C701A091B2
:100ED000C801B091C9018A019B01082B192B2A2B4B
:100EE0003B2BC901B8010E942D071F910F91089556
:100EF0000F931F9341E050E060E070E004C0440FA6
:100F0000551F661F771F8A95D2F7CB01BA016095EE
:100F10007095809590950091C6011091C701209120
:100F2000C8013091C90160237123822393230E9459
:100F30002D071F910F9108950F931F9341E050E0EB
:100F400060E070E004C0440F551F661F771F8A954C
:100F5000D2F78091C6019091C701A091C801B091CC
:100F6000C9018A019B01082719272A273B27C901A4
:100F7000B8010E942D071F910F9108950F931F93A1
:100F80000091C6011091C7012091C8013091C9019B
:100F9000602B712B822B932B0E942D071F910F9199
:100FA00008950F931F930091C6011091C7012091DE
:100FB000C8013091C90160237123822393230E94C9
:100FC0002D071F910F9108950F931F930091C60154
:100FD0001091C7012091C8013091C9016027712784
:100FE000822793270E942D071F910F91089508953E
:100FF000262F277091E001C0990F2A95EAF723E088
:10100000769567952A95E1F725E0269FF001279FC1
:10101000F00D1124E40FF51F50E040E0682F70E060
:101020008191DF0111979B01042E02C0369527950F
:101030000A94E2F7217021952827292328272C9349
:101040004F5F5F4F4530510559F70895A82FA7709E
:1010500023E0969587952A95E1F725E0289FF001F2
:10106000299FF00D1124E60FF71F50E040E080E0CB
:10107000219130E00A2E02C0369527950A94E2F7B6
:1010800021703327042E01C0220F0A94EAF7822B25
:101090004F5F5F4F4530510559F70895262F933024
:1010A00070F4833060F4682F70E083E0989F600DE7
:1010B000711D11244CEB51E0822F0E94F807089516
:1010C000292F933068F4833058F490E06CEB71E092
:1010D00033E0239F800D911D11240E94260808955E
:1010E00080E00895B0E0A0E0E8E7F8E00C94E226A4
:1010F0008C01C090C601D090C701E090C801F0906B
:10110000C9018091CA019091CB01A091CC01B0910D
:10111000CD01C82AD92AEA2AFB2ACFE1D0E0BC2E89
:10112000D701C6010C2E04C0B695A7959795879553
:101130000A94D2F780FD09C0219788F7B12C8B2D36
:10114000CDB7DEB7E9E00C94FE26B8018C2F0E94E3
:10115000120F019789F3F3CFCF93DF93EC010E9435
:101160007208BE010E94120FDF91CF9108951F9364
:10117000CF93DF93EB019091BB01992339F0CB0121
:101180000E94AC08DF91CF911F910895882369F0E8
:10119000CB010E947208182F682FCE010E944E08C2
:1011A000BE01812F0E94120FEDCFCB010E9460087B
:1011B000182FF6CF1F93CF93DF93C091CE0116E087
:1011C0008091CF018C1304C0DF91CF911F910895BE
:1011D000D0E01C9FF0011D9FF00D1124E053FE4F45
:1011E0004081518162817381848195810E94CF0603
:1011F0002196C770E5CF40910002509101026091A5
:1012000002027091030280910402909105020E94F3
:10121000CF0608951F93CF93DF9380910502807FBF
:1012200009F049C080910202882309F444C08091EA
:10123000CE01C091CF016091000270910102A09196
:101240000302B0910402D62FD72316E0C81799F1F4
:1012500090E0109711F0DF3F19F401968770F6CFF8
:10126000189F9001199F300D1124F901E053FE4F92
:1012700041814713F2CF40814613EFCF42814111A4
:10128000ECCF438154814A1B5B0B483C510528F746
:10129000809105028F70806180930502F901EB5205
:1012A000FE4F80818F708061808380E092E00E9499
:1012B0005D060E94DA08DF91CF911F910895A1E1A8
:1012C000B0E0E5E6F9E00C94E1268C0185E0F80158
:1012D000DE011D9601900D928A95E1F7F801E280FA
:1012E00080E0C82E82E0D82E609103027091040243
:1012F0006115710509F44EC190910002209101021F
:10130000892F82238F3F09F445C140815181A380F9
:10131000B480F0900202F501E61BF70BFF2009F400
:10132000EAC080910502382F307FE83CF10508F0D3
:10133000A3C031116DC0FE2C251316C0941314C028
:10134000E11012C08F708061809305020E94FB083B
:10135000C6010E945D0680910502F80185838F2DEC
:101360006196EAE00C94FD26A114B10429F0842FC3
:1013700085238F3F09F027C180E0F82FF170DF2E21
:1013800080FF3CC08091CE012091CF0136E08213D6
:1013900015C04D875E878D859E850E94AC08292FDC
:1013A00022952F702230F0F0243018F59F70F1F064
:1013B000F8019581907FD1F4D12C1EC090E0389F28
:1013C000F001399FF00D1124E053FE4F6181651348
:1013D00006C06081641303C06281E6120FC00196EB
:1013E0008770D5CF9F7011F0882331F3805E8830ED
:1013F00018F3C8010E945D06FD2CB1CFEE2009F460
:10140000AECF80910502816080930502F12CA7CFB9
:10141000251306C0941304C0F801EE2009F487C018
:10142000C8010E94BD06882319F1EE2009F18091C0
:101430000502803270F0209100023091010238875D
:101440002F831986BB86AA868C87CE0107960E94B9
:101450005D0686E0F801A0E0B2E001900D928A9569
:10146000E1F70E940A090E94FB08FF24F39477CF5A
:10147000C8010E945D06F9CF311113C07A2DB98AD7
:10148000A88A6E2D89890E94C50680E092E00E949C
:101490005D0686E0F60111928A95E9F70E94FB0845
:1014A000B5CF25130FC094130DC0E1100BC0F80188
:1014B0008583C8010E945D0686E0F60111928A9537
:1014C000E9F74DCFC8010E94BD06882389F2EE20BE
:1014D00079F280910502803208F4BBCF209100029E
:1014E000309101023A8329831B82BD82AC828E83B4
:1014F000CE010196ACCFE83CF10508F03EC0FE2CD1
:10150000EE2009F4B5CF25132AC0941328C080918A
:10151000050280FD1BC0982F907FC1F0F8018583E4
:10152000903F31F0982F907F905F8F70892B85834B
:10153000C8010E945D0686E0F801A0E0B2E00190DB
:101540000D928A95E1F70E94FB0809CF86E0F80129
:10155000A0E0B2E001900D928A95E1F700CFC801BA
:101560000E94BD06811175CF809105028160809334
:101570000502C8010E945D06F2CE7A2DB98AA88ABA
:101580006E2D89890E94C50686E0F60111928A9522
:10159000E9F7D9CFEE2009F46BCFC8010E94BD0650
:1015A000F82E882309F464CF86E0F801A0E0B2E0C9
:1015B00001900D928A95E1F780E092E00E947F030E
:1015C0000E940A09C0CF81E08E25D7CEACE0B0E002
:1015D000ECEEFAE00C94E8264F83588769877A8707
:1015E0008B879C87CE0107960E945F09882369F04C
:1015F0008A859B85892B39F04F815885842F8523D7
:101600008F3F09F06BC016E05FC086E0FE013796A1
:10161000DE01119601900D928A95E1F78A859B85EE
:10162000892B89F38F81988589238F3F61F32091DE
:10163000CF0130E0C9010196877099274091CE0112
:101640004817190671F40E949D061092CF0110925E
:10165000CE0186E0E0E0F2E0DF011D928A95E9F735
:10166000D2CF96E0929FD001939FB00D1124A0534A
:10167000BE4FFE01319601900D929A95E1F780934D
:10168000CF010E94DA08BFCF819FC001112480538F
:101690009E4F0E945F098823E9F0E091CE011E9FD2
:1016A000F0011124E053FE4F40815181628173812A
:1016B000848195810E94CF068091CE0190E00196B1
:1016C000877099278093CE018091CE019091CF01B0
:1016D0008913DACF2C96E3E00C94042769857A8588
:1016E0008B859C850E94CF068ECF682F809100014C
:1016F000909101010E94361E0895682F809100018B
:10170000909101010E94441E0895809100019091E2
:1017100001010E94521E08958091260285958595AB
:1017200085950895809126028770089590912602EC
:10173000977081E009F480E008958091490208954E
:1017400090914902892B8093490208958095909148
:1017500049029823909349020895109249020895EE
:1017600090914802892B809348020895809590912A
:1017700048029823909348020895109248020895D1
:1017800080912702089508950E94C30B08959091B7
:10179000A60292FF08C090912702981721F080932B
:1017A00027020E94C40B089580912702882329F004
:1017B0001092270280E00E94C40B0895CF93DF931C
:1017C000E0910001F0910101809149028083E09154
:1017D0000001F0910101808190914802892B808362
:1017E00090912702992381F0E0910001F09101018D
:1017F0008081892B808380910001909101010E945A
:10180000A21D81110E94D40BC0910001D091010151
:1018100040E250E066E072E0CE010E942927892B69
:1018200059F080E2FE01A6E0B2E001900D928A95A7
:10183000E1F7CE010E944E1DDF91CF9108950895EA
:101840000E941F0C08959091A60292FF11C098E08B
:10185000899F90011124622B609326020E945607F3
:10186000809126028595859585950E94200C089586
:101870000E94560708951092260280E00E94200CD4
:101880000895909126028095892380932602282F1F
:10189000277091F4282F082E000C330B9217130693
:1018A00059F09091A60292FF07C085958595859580
:1018B0000E9478070E943B0C08959091A60292FB2B
:1018C000222720F9281769F080FB92F99093A6024D
:1018D0008091A5029091A6020E94AE0C82E00E9427
:1018E000410C08958091A60282FB882780F991E03F
:1018F00089270E945D0C089581E00E945D0C089587
:1019000080E00E945D0C08956FEF7FEF90E080E033
:101910000E946827089590E080E00E94442721E01B
:10192000883E9E4F09F020E0822F089582E090E0EB
:101930000E943627089583E090E00E94362708959C
:10194000CF9384E090E00E943627C82F82E290E097
:101950000E943627982F8C2FCF910895CF93C92FAF
:10196000682F84E090E00E944A276C2F82E290E08A
:101970000E944A27CF910895AB01BC018FE090E00F
:101980000E945C270895AB01BC0183E190E00E94B6
:101990005C27089560E070E0CB010E94C30C0895BD
:1019A00060E070E0CB010E94BC0C0E94CA0C08955C
:1019B00068EE7EEF90E080E00E94682760E082E0C1
:1019C00090E00E944A2760E083E090E00E944A276E
:1019D0001092CA011092CB011092CC011092CD014D
:1019E00060E084E090E00E944A2764E082E290E0B8
:1019F0000E944A2760E085E090E00E944A2760E06C
:101A000086E090E00E944A276FEF87E090E00E9416
:101A10004A2740E050E0BA0188E090E00E945C274D
:101A200060E08DE090E00E944A2740E050E0BA017B
:101A300088E190E00E945C2760E087E190E00E94EE
:101A40004A2740E050E0BA018CE190E00E945C2718
:101A500070E060E080E290E00E94682740E050E0A3
:101A6000BA0188E190E00E945C270E94D00C0895A2
:101A70000E94D80C0895682F8EE090E00E944A27BB
:101A800008950E941F1F6093510270935202809329
:101A900053029093540260934D0270934E028093D0
:101AA0004F02909350020895089508950E94550D95
:101AB000089508950E94590D089581EF9FE00E94B6
:101AC000371D0E94540D0E94560D089581E008951F
:101AD0000E94660D0895089508950E946B0D0E945E
:101AE0006C0D08950E9410100E942C0308950E940E
:101AF0000A1F0E94D6100E94720D0E9437190E9480
:101B00005A0D0895AAE0B0E0E8E8FDE00C94E02664
:101B10000E94EC10C82E81110E94410D3AE4A32EC0
:101B200032E0B32E10E000E0902E802F0E943D1096
:101B3000E82EF501F1905F01F81609F440C080919C
:101B4000550281FD0E9443108F2D8E25F82FF170D4
:101B5000FF2E80FD2DC081FD2DC082FF30C092E0A0
:101B6000D92E24E0F22E0E94680D882399F0DE829F
:101B70009F82EF2081E009F480E088870E94131F94
:101B80008160782F9A8789874E815F8168858A85F1
:101B90000E944A03F801E65BFD4F8081F826F0823F
:101BA00081E0C11001C080E02A96EBE00C94FC2695
:101BB000D12CD9CFDD24D39482E0F82ED4CF0F5F7F
:101BC0001F4F0330110509F0AFCF8FEF89838A8350
:101BD0001B820E94131F8160782F9D838C83498113
:101BE0005A816B818D810E944A03DACF0E94820D57
:101BF0000E947D190E94E2120E943F030895CF9334
:101C0000DF930E94170FEC01811521E5920708F080
:101C100042C0811530E5930708F09DC0883E9105CC
:101C200030F5803E910508F092C0883A910588F41D
:101C3000853A910508F084C08130910509F487C088
:101C4000009709F484C0049708F081C0D0E0C0E098
:101C50007EC08F3B9105D0F7C85AD0E0CC0FDD1F76
:101C6000C55ADE4F0990D881C02DD46470C081154B
:101C7000904250F4C11581E0D80708F068C0CD3E0D
:101C8000D10520F3D06563C0C11590E4D907F0F207
:101C9000DF70D06A5CC0811525E5920700F58115DB
:101CA00034E5930708F08BC0811543E5940708F0ED
:101CB00073C0C11582E5D80708F469C0CE018370EE
:101CC000992721E030E002C0220F331F8A95E2F706
:101CD000C695C69580E2C89FE001112454C0C11585
:101CE00099E5D907A8F4C11528E5D20708F06CC01A
:101CF000C11536E5D30708F0A9CF8C2F0E94AE0F8F
:101D0000C82FD0E0DC2FCC27CC27DF71D0621FC0DA
:101D1000C1154AE5D40708F45CC0CE019056811580
:101D2000904208F093CF8D2F8F710E94AE0F90E0FC
:101D3000982F882788279F719C012C2BE901E6CFDB
:101D4000C55AD0E0C757DE4FC881D0E0D064CE017D
:101D5000DF91CF910895E4E096958795EA95E1F7B4
:101D600083702C2F26952695237040E2249F9001A6
:101D70001124382B8C2F8370C1E0D0E002C0CC0F2F
:101D8000DD1F8A95E2F7C22BD32BDC68E0CFDC2F76
:101D9000CC27C16FD06ADBCF8370992721E030E078
:101DA00002C0220F331F8A95E2F7C695C69590E2CE
:101DB000C99FE0011124C22BD32BDA68C8CFD82FDA
:101DC000CC27C46FD06AC3CFDC2FCC27C06FD06ABA
:101DD000BECF8C2F8F700E94AE0F34E0D695C79582
:101DE0003A95E1F7CF709C2FEC01D069B0CF972FD7
:101DF0007330A8F4633098F470E023E0929F600D94
:101E0000711D1124FB0199E0899FE00DF11D112442
:101E1000EE0FFF1FE455FF4F85919491089580E0E8
:101E200090E008950E94F70E0E94FF0D08958238F9
:101E30009105B1F1B0F48133910509F475C048F40E
:101E40008932910509F469C08A32910509F473C099
:101E500008958533910509F459C08933910501F13D
:101E60000895833E9105A9F138F4803E9105F9F07B
:101E7000823E910549F10895863E9105A9F1873E7C
:101E80009105C9F1843E910519F52091A60221FF23
:101E90001FC08091A50284FD14C087EE90E00895D4
:101EA0002091A5022370A1F080EE90E0089520918A
:101EB000A50220FD47C03091A60230FF09C024FFD3
:101EC00044C090E080E004C02091A50222FDF7CF3D
:101ED00008952091A50222FD3BC03091A60230FD5D
:101EE000E3CF24FFF5CFEDCF2091A50223FFF0CF64
:101EF00024FDE7CFD2CF2091A50223FD2CC0309145
:101F0000A60231FFEECF84EE90E008952091A50265
:101F100025FFDECF89E290E008952091A50225FFFC
:101F2000D7CF85E390E008952091A50226FFD0CF7A
:101F30008AE290E008952091A50226FFC9CF81E3AF
:101F400090E0089589E390E0089583EE90E008958D
:101F500082EE90E0089586EE90E008959091A502BB
:101F600092FF06C0282F28712830F9F4877F8460FB
:101F700093FF06C0282F28712831F1F4877E8461F1
:101F80002091A60220FF06C0382F38713830D9F4CE
:101F9000877F816021FF06C0282F28712831D1F466
:101FA000877E816194FD877E0895282F24712430D7
:101FB000F9F68B7F8860DCCF282F2471243101F75C
:101FC0008B7E8861DDCF382F3171313019F78E7FEC
:101FD0008860E0CF282F2171213121F78E7E886122
:101FE000E1CF80E008950E94840C08950E94EC10D7
:101FF0002FEF86E791E0215080409040E1F700C04C
:1020000000000E94EC1080E00E943D1080FF04C0A0
:102010000E94F30F0E945E1F08950E94F60F08951C
:102020000E948B0C811102C00E94380D0E94960CF8
:10203000809355020E94A00C9093A6028093A50263
:102040000E940D100E949B0C682F70E090E080E0D1
:102050000E94EB066091C6017091C7018091C80192
:102060009091C9010E942A07089508950E94351091
:10207000089508950E9439100895E82FF0E0E6557C
:10208000FD4F80810895089580EA8A95F1F70895BB
:1020900000C008950E9444100895F894E82FE29536
:1020A000EF70F0E031A1282F2F7081E090E001C0A7
:1020B000880F2A95EAF7982F9095932391A392A1E0
:1020C000892B82A37894089586E60E944D1086ECB1
:1020D0000E944D1084E30E944D1084E90E944D102F
:1020E00087E90E944D1085E30E944D100895B0E0ED
:1020F000A0E0EDE7F0E10C94E326EC01D62E062FEC
:1021000010E0C80181579E4F7C01FC0180818F3F08
:1021100009F445C0F894E82FE295EF70F0E091A142
:102120008F7021E030E001C0220F8A95EAF7892FF5
:10213000822B81A382A12095282322A378940E9438
:102140004810ECE8F1E04FE851E031E0C12C21917A
:102150002F3F51F1A22FA295AF70B0E090968C91D5
:1021600090E02F7002C0959587952A95E2F780FD43
:102170001BC0832FC82A330F4E175F0741F7F701A3
:1021800080818F3F11F00E944D1061E0C11001C0AD
:1021900060E08D2D0E944A10C00FD11FC882CDB7BC
:1021A000DEB7E8E00C94FF2680E0E4CF0E946410E4
:1021B00083E0EAEAF2E0DF01982F1D929A95E9F7B1
:1021C000E7EAF2E0DF011D928A95E9F783E00E94D9
:1021D0002B110E949C020895A3E0B0E0E2EFF0E131
:1021E0000C94E82619821A821B8260E0CE010196C7
:1021F0000E94771061E0CE0101960E94771062E0A4
:10220000CE0101960E94771043E050E0BE016F5F5F
:102210007F4F87EA92E00E94292711E0009709F496
:1022200010E0892B49F089819A81AB818093A702C4
:102230009093A802A093A902212F43E06AEA72E0DA
:1022400087EA92E00E942C110E949F02812F239620
:10225000E3E00C9404270895FF920F931F93CF930C
:10226000DF93F82E092F162FD72FC42F222349F0E2
:1022700081E0809358020E94131F9093570280932D
:102280005602809158028823A1F0809156029091C5
:1022900057020E942B1F059760F0EF2DF02FA12F02
:1022A000BD2FCE0FDF2FD11DEC17FD0739F4109293
:1022B0005802CDB7DEB7E5E00C94022781918D93EB
:1022C000F3CF0E9425210E94770D0E9432210895AC
:1022D0000E9437210E94F60D0E94512108950E940C
:1022E000AC1E0E940B210E945D0D0E9461110E9494
:1022F00068110E946D0DFBCF80915F0280FF0DC0C1
:102300006091070170E0660F771F6038710570F506
:102310006115710569F1862F089581FF07C06091ED
:10232000070184E0689FB0011124EFCF609107019D
:1023300082FD0AC080915E028823A9F020910601E7
:1023400060910701821710F088E0ECCF869FC001F2
:10235000112433E0880F991F3A95E1F7622F70E05E
:102360000E946C26D2CF68E070E0D5CF8FE7089549
:1023700081E0089580915F0280FF0CC060910301AD
:1023800070E075956795759567956115710549F1CB
:10239000862F089581FF06C06091030170E0759556
:1023A0006795F3CF6091030182FD0BC090915D02B0
:1023B0009923A1F06091020180910301961738F0F2
:1023C000682F70E06038710500F38FE70895899FEA
:1023D000C001112470E00E946C26F4CF61E070E02F
:1023E000D7CF81E008958D3E31F40E947C11819514
:1023F0008093630208958E3E19F40E947C11F8CFF9
:102400008F3E31F40E947C11819580936202089581
:10241000803F19F40E947C11F8CF893F29F40E9473
:10242000BA118093640208958A3F21F40E94BA1180
:102430008195F7CF8B3F31F40E94BA11819580933B
:10244000650208958C3F19F40E94BA11F8CF9FE0FD
:10245000980F983070F4815F990B21E030E001C053
:10246000220F8A95EAF780916102822B80936102A4
:1024700008958D3F31F480915F02816080935F0207
:1024800008958E3F21F480915F028260F7CF8F3FE5
:10249000B9F780915F028460F1CF409162028D3E76
:1024A00059F48091630287FF0DC0109263024111BD
:1024B0000BC010925E0208C08E3E81F480916302D0
:1024C00018169CF3442381F0809164029091650278
:1024D000892B09F05AC010925D0208958F3E49F48D
:1024E00047FFF0CF10926202809163028111ECCF1E
:1024F000E0CF803F19F41416ACF3E4CF909164025E
:10250000893F29F41916F4F610926402DBCF8A3F52
:1025100019F497FFD7CFF8CF909165028B3F29F43C
:1025200097FFD0CF10926502CDCF8C3F19F41916CA
:10253000CCF3C8CF9FE0980F983090F4815F990B4F
:1025400021E030E0B90102C0660F771F8A95E2F7FB
:10255000CB01809590916102892380936102B2CF73
:102560008D3F31F480915F028E7F80935F02AACF0E
:102570008E3F21F480915F028D7FF7CF8F3F09F06E
:10258000A1CF80915F028B7FF0CF08950E94131F2F
:102590009C019091620280916302982B21F030930C
:1025A0005C0220935B029091640280916502982BFB
:1025B00021F030935A022093590280E692E00E9463
:1025C000681D0895A6E0B0E0E8EEF2E10C94E8267C
:1025D00086E0E0E6F2E0DE01119601900D928A9528
:1025E000E1F710926202109263021092640210925C
:1025F00065028B819C81892B81F080915B02909197
:102600005C020E942B1FAC0190915E02992391F114
:102610008091080184171506D0F18D819E81892B48
:1026200091F08091590290915A020E942B1FAC01A7
:1026300090915D02992309F46BC080910401841785
:10264000150608F473C0BE016F5F7F4F80E692E00D
:102650000E94641E81110E94C61286E0FE0131961E
:10266000A0E6B2E001900D928A95E1F72696E3E0AC
:102670000C940427209109018AE0289F90011124DD
:102680002417350750F69F5F90935E0202C09F3F6C
:10269000D1F71B81112359F00E947C119FEF111675
:1026A0000CF491E0899F802D1124809362021C819B
:1026B000112359F00E947C119FEF11160CF491E048
:1026C000899F802D1124809363023091620233230D
:1026D00009F4A3CF20916302222309F49ECF45EB96
:1026E0003403C0011124992359F09093620245EB01
:1026F000240390011124332339F0309363028DCFEA
:1027000081E080936202F3CF81E08093630285CF02
:10271000209105018AE0289F900111242417350794
:1027200008F091CF9F5F90935D0202C09F3FD1F769
:102730001D81112359F00E94BA119FEF11160CF45C
:1027400091E0899F802D1124809364021E811123C2
:1027500059F00E94BA119FEF11160CF491E0899F75
:10276000802D11248093650230916402332309F493
:102770006ACF20916502222309F465CF45EB34032B
:10278000C0011124992359F09093640245EB24036E
:1027900090011124332339F03093650254CF81E046
:1027A00080936402F3CF81E0809365024CCF86E092
:1027B000E0E6F2E0DF011D928A95E9F710925E02F1
:1027C00010925D0210925F020895EF92FF920F93B4
:1027D0001F93CF93DF93EB01E82FD1110EC0442359
:1027E00021F0F0E0EB52FE4FE4916E2F7E2F8E2F02
:1027F000CDB7DEB7E6E00C9401270D2F10E0282FAF
:1028000030E0442329F02B523E4FF901249130E06F
:10281000F6E0CF9FC0011124EFEFF0E0BF010E946E
:102820005826AB018C2F90E0880F991FA5E5A49F37
:10283000B001A59F700D1124861B970B982F990F3F
:10284000980FBF01601B710B629FD001639FB00D99
:10285000729FB00D11248B2F9D9FB0011124672F03
:102860007727EF01C61BD70BBE01629FE001639F74
:10287000D00D729FD00D11247F01E91AF108E09E5E
:10288000B001E19E700DF09E700D1124672F772727
:10289000E61BF70BE29F8001E39F100DF29F100DE6
:1028A0001124E12F722F4230510599F048F441155F
:1028B000510569F04130510581F0EB2F8D2F07C094
:1028C0004430510569F080F046305105B1F76E2F64
:1028D0008FCFE22F7B2F812FFACFE22F7D2FF7CFE3
:1028E000EB2F822F712FF3CF7B2F822FED2FEFCF86
:1028F00041E00E94E513089508950E947814089518
:10290000CF93DF93762FE901682F842F0E947D14E7
:10291000798368838A83DF91CF9108958091AD0296
:10292000982F9E7F29F4817082608093AD02089574
:102930008A34E8F381708864F8CF88E090E00E94E0
:102940003E270895CF92DF92EF92FF926B017C01B8
:102950000E948E14B701A60188E090E00E945C27D7
:10296000FF90EF90DF90CF900895EDEAF2E083E0E2
:10297000808311828FEF82838383148260817181CF
:10298000828193810E94A21408958091AD0280FFFC
:1029900002C08695089580E008959091B102933029
:1029A00018F49F5F9093B102882351F06091AD02BB
:1029B0007091AE028091AF029091B0020E94A21479
:1029C000089581E00E94CD1408959091B102992359
:1029D00019F091509093B102882351F06091AD02AB
:1029E0007091AE028091AF029091B0020E94A21449
:1029F000089581E00E94E514089570E00E94EE1AA7
:102A0000089560910E018091AD0280FF0BC080910E
:102A10000D0123E0829FC00111248E549D4F0E941E
:102A2000FD14089580910F019091100123E0829F81
:102A3000F0011124EE54FD4F891748F711821082DE
:102A400012828F5F3396F8CF9091AD0290FF0EC047
:102A500090910F012091100133E0939FF001112418
:102A6000EE54FD4F921718F00E94011508958183CE
:102A7000608342839F5F3396F5CFA3E0B0E0E3E449
:102A8000F5E10C94E9269091AD0290FF0AC09E01F9
:102A90002F5F3F4F0E9480144B8169818A810E9481
:102AA00024152396E2E00C940527CF93DF93EC01E5
:102AB000EC81F0E0E053FF4F4491EDEAF2E06281F7
:102AC00081810E943D158C818F5F8C83DF91CF9136
:102AD0000895CF93DF93EC01EDEAF2E04381628148
:102AE0008C810E943D158C818F5F8C83DF91CF910B
:102AF0000895A3E0B0E0EFE7F5E10C94E7268C0140
:102B00008091660281110AC09E012F5F3F4F4FEFF7
:102B10006FEF0E9480148A8180936602F8016481BD
:102B2000613069F08091660240E0662361F040E028
:102B3000623011F44091660280E060E004C0609170
:102B4000660240E080E00E942415F801848190E054
:102B5000019663E070E00E946C2684832396E4E093
:102B60000C940327A3E0B0E0E8EBF5E10C94E22637
:102B7000082FD62EE42EC22E9091AD0290FF29C0D0
:102B8000E92FE695AE2FB0E0AE56BE4F8C91809304
:102B900072029E7F923009F59E012F5F3F4F802F7A
:102BA0000E9480144B8169818A810E9424150093C0
:102BB000AE02D092AF02E092B002CC2051F0609110
:102BC000AD027091AE028091AF029091B0020E946E
:102BD000A2142396E9E00C94FE26823019F4E090CA
:102BE000B002E5CF863019F40091AE02E0CF893013
:102BF000D9F38931E1F6E9516E2F6170B62EE69571
:102C0000F0E0E053FE4F1491F12C60911101F616A3
:102C100018F00E940115CBCFF19EC001112470E085
:102C20000E945826802FB11014C0860F20910F01EA
:102C3000622F6F0D7727771F9B01220F331F260FFF
:102C4000371F2E543D4F4E2D6D2D0E948014F3944E
:102C5000DCCF861BEBCFEDEAF2E09181282F438198
:102C600062818AE0890F0E94B215089581E00E9476
:102C70002B160895EDEAF2E09181282F43816281BD
:102C800086EF890F0E94B215089581E00E943A16DE
:102C90000895EDEAF2E0628121E1620F08F46FEF3E
:102CA000282F438181810E94B215089581E00E94FE
:102CB00049160895EDEAF2E0628121E1621B08F411
:102CC00060E0282F438181810E94B215089581E040
:102CD0000E945A160895EDEAF2E0438121E1420F85
:102CE00008F44FEF282F628181810E94B215089568
:102CF00081E00E946B160895EDEAF2E0438121E144
:102D0000421B08F440E0282F628181810E94B215A5
:102D1000089581E00E947C16089520E00E94B2157B
:102D20000895EF92FF921F93CF93DF93EC0110E091
:102D3000EE24EA94F12C60911101161770F00E94B4
:102D400001159A818C8190FF27C08F5F8C83DF9162
:102D5000CF911F91FF90EF90089520910F01422F86
:102D6000410F5527551FCA019A01220F331F280F03
:102D7000391F2E543D4F70E0C7010E946C26962FDC
:102D80008C814091B0026091AF02199F800D112497
:102D90000E9480141F5FCFCF8150D8CFB0E0A0E059
:102DA000E4EDF6E10C94E126FC0182810FEF80FF57
:102DB00001E010E049E0A42E80911101181798F06D
:102DC0000E94011580916802013009F04FC0811105
:102DD00002C080911101815080936802CDB7DEB7A7
:102DE000EAE00C94FD26C0910F01C12ED12CCC0D30
:102DF000DD2DD11DCE01880F991FC80FD91FCE54CC
:102E0000DD4F198218821A8234E0E32EF12CB12CA6
:102E1000809168028B0D8A301CF16A2D0E944A262F
:102E2000892F082E000C990BC816D90691F48091B1
:102E3000B0028E9DA0018F9D500D11245595479590
:102E4000559547959E016091AF028091AE020E9418
:102E50008014B00EF1E0EF1AF108D1F61F5FACCF8D
:102E600087FFDFCF90911101890FDBCF90E00196B2
:102E70006091110170E00E946C26AECF0F931F93FA
:102E8000CF93DF9380910F019091100123E0829FF7
:102E9000F0011124EE54FD4F891740F1C0E0D3E05A
:102EA00060911101C61740F10E94011520910B019C
:102EB00080916702820F8093670290910C01920FBC
:102EC00090930C01191654F4082E000C990B4091A4
:102ED00011014150550B841795071CF02195209343
:102EE0000B01DF91CF911F910F91089511821082F4
:102EF00012828F5F3396D0CF0C2F10E070E0C801A4
:102F00000E946C2620910F01820F482F50E02091E3
:102F10006702022E000C330B02171307BCF020913E
:102F20000C01022E000C330B201731077CF08D9F13
:102F3000900111242E543D4F4091B0026091AF0298
:102F40008091AE020E948014CF5FAACFFA01EE0FEB
:102F5000FF1FE40FF51FEE54FD4F11821082128205
:102F6000F3CFB0E0A0E0E7EBF7E10C94DF26EC0153
:102F70004C81042F10E09801D8010E94B0269B01DB
:102F8000AC010E94C6264B015C01E0E2F0E0E01BD0
:102F9000F10BA5E5B0E0AC019B010E94C6266B01D8
:102FA0007C019F01DF010E94A8269B01AC010E94C9
:102FB000D1269B01AC01280D391D4A1D5B1DC7019F
:102FC000B6010E948026F22E822F90E039E23F1552
:102FD00020F143E0249F9001112435952795122F6D
:102FE000109500E085E5E82EEF1880911101081793
:102FF00018F10E9401159C8181E0992319F090320B
:1030000019F48FEF80930A0180910A01890F8C8354
:10301000CDB7DEB7ECE00C94FB2625E530E0B90136
:10302000681B790B9B01220F331F260F371F37FFB9
:10303000D4CF2F5F3F4FD1CF8E2D01FD8F2D20910B
:103040000F01622F600F7727771F9B01220F331F1D
:10305000260F371F2E543D4F412F6091AF020E9423
:1030600080140F5FC2CF0F931F93CF93DF93EC01B8
:1030700010E000E0909111019017110609F06CF436
:103080000E9401158C8190E00196817099278C83B4
:10309000DF91CF911F910F91089520910F01A80109
:1030A000420F511D9A01220F331F240F351F2E543A
:1030B0003D4F4C816091AF028091AE029695901782
:1030C000110651F04CF0442349F04091B0020E94A7
:1030D00080140F5F1F4FCECF4423B9F340E0F7CFEA
:1030E000EDEAF2E080818E7F808360817181828150
:1030F00093810E94A214109273022FEF80E792E056
:10310000215080409040E1F700C000000E9401156E
:103110000895EDEAF2E080818E7F80831092730241
:103120002FEF80E792E0215080409040E1F700C00F
:1031300000000E94011508951092730280917002A0
:1031400081110AC081E0809370028091AD0281708C
:1031500080936F020E94891808956091AD02669570
:1031600070E04BE050E082E191E00E941C27892B47
:1031700019F481E0809373020E94131F90936A02F6
:103180008093690208959091AD0290FF2BC09170D9
:10319000811129C092609093AD02662351F0609135
:1031A000AD027091AE028091AF029091B0020E9488
:1031B000A2146091AD02669570E04BE050E082E1B0
:1031C00091E00E941C27892BA9F01092730281E0E4
:1031D00080936C024091B0026091AF028091AE0288
:1031E0000E948D160895853210F09864D4CF880F10
:1031F000982BD1CF0E94AD18EACF682F9091AD02E5
:10320000969581E0890F853208F081E00E94C3180D
:10321000089581E00E94FD180895682F9091AD02F5
:1032200096958FEF890F09F484E20E94C3180895E0
:1032300081E00E940D19089561E00E94C31808956D
:10324000EDEAF2E080818160808386950E941C19FE
:1032500008958091AD0280FF03C00E947018089508
:103260000E942019089560E00E94C318089580917B
:10327000710281112EC00E948B0C811104C00E942A
:10328000380D0E94B5140E949D146093AD02709396
:10329000AE028093AF029093B0026E7F61F40E9401
:1032A000B5140E949D146093AD027093AE0280939A
:1032B000AF029093B0020E948E141092730280911C
:1032C000AD0280FF03C086950E94331981E0809390
:1032D00071020895EDEAF2E0808181608083869535
:1032E0000E94331908951092700280916F0281112B
:1032F0000E946A190E94AD1808950F931F93CF93EF
:10330000DF93809173028823B9F180917202E0917A
:10331000AD02E695E81BE0936B02823091F5F0E098
:10332000E453FF4FE491CE2FD0E005E515E1809105
:103330006C02882361F010926C020E94131F90931C
:103340006A028093690210926E0210926D020E94CE
:10335000131FE0916902F0916A028E1B9F0B8F3F51
:103360009F4750F4EC0FFD1FF0936A02E09369024F
:1033700089E692E0F8010995DF91CF911F910F91B5
:103380000895863049F4F0E0E753FF4FE491CE2FE3
:10339000D0E009E615E1CBCF893051F4E695F0E0B5
:1033A000EA53FF4FE491CE2FD0E001E916E1BFCF01
:1033B0008F3051F4E695F0E0ED53FF4FE491CE2FBE
:1033C000D0E00EEC16E1B3CF853149F4F0E0E054E3
:1033D000FF4FE491CE2FD0E00EE317E1A8CFC8E273
:1033E000D0E001EB17E1883109F4A1CF833239F441
:1033F000EEEBF0E0C591D49109E715E198CFC4EF69
:10340000D1E003E318E1843209F491CFC0EDD7E0B5
:103410000CE714E18CCFFA01811101C0FB01099581
:103420000895CF93DF93C82FD62F0E94C5148C1711
:1034300048F00E94C5148D1728F40E940919DF91E5
:10344000CF9108958C2F0E941C19F9CF1F93CF9311
:10345000DF93EC01FB01128111117EC00E949D0BD4
:103460008272CD3CFCE5DF0709F49CC008F041C046
:10347000C73CECE5DE0709F481C0D8F4C43C9CE508
:10348000D90709F471C030F4C33CDC4509F469C0C4
:1034900011E062C0C53C9CE5D90709F46AC045E467
:1034A00056E166E376E1C63CDC4591F70E940B1AD3
:1034B00053C0CA3CFCE5DF0709F46AC068F4C83CA5
:1034C000ECE5DE0709F45FC046E556E167E676E124
:1034D000C93CDC4559F3DCCFCB3C9CE5D90709F46A
:1034E0005CC049EF54E161EE74E1CC3CDC45F1F2A3
:1034F000CFCFC23DFCE5DF0709F465C098F4CF3CAF
:103500009CE5D90709F457C008F451C0C03DFCE55B
:10351000DF0709F455C0C13DDC4509F0B9CF6EE0C5
:1035200089E04BC0C53D9CE5D90709F452C058F469
:10353000C33DFCE5DF0709F449C0C43DDC4509F0A3
:10354000A7CF88E135C0C63D9CE5D90709F444C042
:10355000CE35DD4509F09CCF812FDF91CF911F91B2
:1035600008950E942919F8CF48E159E169E079E10D
:103570009DCF49E059E168E179E198CF46E356E112
:1035800065E476E193CF47E656E166E576E18ECFD6
:1035900049E856E168E776E189CF48E756E169E80E
:1035A00076E184CF41EE54E169EF74E17FCF81E0B1
:1035B0000E941C19D1CF65E082E00E94111ACCCF85
:1035C00068E086E0FACF64E18FE0F7CF67E185E15C
:1035D000F4CF62E289E1F1CF83E2EACF539A4BB1B3
:1035E000477F5BB15860EFB7F8949B01220F331F00
:1035F000260F371F280F391F2817390741F4EFBF4F
:103600008FE594E00197F1F700C000000895DC0118
:103610006D91CD0178E05BB9000000C067FF4BB948
:10362000660F000000C000C000C04BB900C07A9512
:1036300091F7E2CFCF93DF93EC01FB0182818823E6
:1036400009F433C1C430FDE5DF07C0F5CB3F9CE58D
:10365000D90730F49E0122503C4524313105B0F5A4
:103660000E94A00C9093A6028093A502C1318CE524
:10367000D80709F4EEC008F069C0C930ECE5DE07F0
:1036800009F4D5C0C8F5C5308CE5D80709F4C7C022
:1036900000F5C330ECE5DE0709F4B9C008F0BBC0A3
:1036A000C230DC4509F4ADC08091A5029091A6021C
:1036B0000E94AE0C0E949D0680E008C0C236EDE577
:1036C000DE0771F2C63AFDE5DF0751F2DF91CF91D7
:1036D00008958091A5028062C7309CE5D90709F45E
:1036E00093C08091A5028061C830DC4508F48CC08D
:1036F0008091A502806488C08091A5028B7FCD3027
:10370000FCE5DF0709F480C098F48091A5028E7F64
:10371000CB309CE5D90709F477C08091A5028C6075
:10372000CC30DC4508F470C08091A5028D7F6CC060
:103730008091A5028F7ECF30FCE5DF0709F464C0DD
:1037400008F47BC08091A5028F7D5EC0CE3F9CE5D2
:10375000D90709F47AC050F5C531FCE5DF0709F453
:1037600086C098F48091A502837FC3319CE5D90778
:1037700009F44AC008F471C00E949D069091A50208
:10378000892F97FB87F980583FC0CC3FFCE5DF07C6
:1037900009F449C008F055C08091A6028160CB3F72
:1037A000DC4509F081CF8093A6027ECFC230EDE5E3
:1037B000DE0709F468C0A8F4C1158DE5D80709F43F
:1037C00052C08091A6028360C130DD4560F38091D4
:1037D000A602982F909591708E7F892B90FB81F98E
:1037E000E2CFC236EDE5DE0709F451C0C63AFDE589
:1037F000DF0709F453C0C330DD4509F055CF80E041
:1038000043C08091A50281608093A5024DCF809135
:10381000A5028260F9CF8091A5028460F5CF8091E6
:10382000A5028860F1CF8091A6028260BCCF0E9481
:103830009D068091A5028068E7CF8091A502877FD1
:10384000E3CF8091A6028E7FAECF8091A6028D7FBE
:10385000AACF8091A5028F7BD7CF0E949D06809131
:10386000A5028F77D1CF8091A6028C7F9CCF8091CB
:10387000A50282FB992790F921E0922790FB82F91B
:1038800090FB83F9C1CF81E00E943B0D0DCF909159
:10389000A502892F8F7E94FF8061B6CF9091A502FB
:1038A000892F8E7F90FF8160AFCF81E00FCFCF93C4
:1038B000DF93EB0186319C4511F50E949D0B9A81A7
:1038C000992399F08A7A91E009F490E09093740238
:1038D000811109C089E20E94750B0E94DE0B80E015
:1038E000DF91CF91089585E3F6CF80917402811125
:1038F00004C089E20E947D0BF0CF85E3FBCF81E01D
:10390000EFCF0F931F93CF93DF93C42FD22FFC01E0
:1039100082818823C9F0409377020E94131F9093FD
:1039200076028093750280E28C0F883040F4C77075
:1039300081E001C0880FCA95EAF70E942404DF9154
:10394000CF911F910F91089510917702141332C0F7
:1039500080917502909176020E942B1F883C910500
:1039600048F5C0E2CD0F1D17B9F080E2810F883015
:1039700040F4177081E001C0880F1A95EAF70E94A1
:103980002B04C83048F481E09D2F977001C0880F48
:103990009A95EAF70E942404802F0E941B04C830E5
:1039A00070F6D77081E001C0880FDA95EAF70E94BF
:1039B0002B04C5CF80E28C0F883008F6C77081E0F9
:1039C00001C0880FCA95EAF7F2CF0F939C01CB0193
:1039D000243F4CE5340759F1A8F4293DFCE53F07A5
:1039E00001F12A3D4CE53407D1F1283D3C4591F4E5
:1039F00006E221EE41EE68ED7CE50E94811C80E04C
:103A00000F910895263FFCE53F07E9F0B0F0273F0E
:103A10003C45F9F0FC018281882339F1109277024C
:103A2000EFCF07E225EE45EE69ED7CE5E6CF06E255
:103A300021EE40EE64EF7CE5E0CF07E225EE44EEB8
:103A400065EF7CE5DACF06E221EE42EE66EF7CE53B
:103A5000D4CF07E225EE46EE67EF7CE5CECF08E255
:103A600021E045EE6AED7CE5C8CF81E0C9CF9093B7
:103A7000B9018093B801089590937D0280937C02F0
:103A80000895E0917C02F0917D02309729F0019039
:103A9000F081E02D0995089580E00895E0917C0281
:103AA000F0917D02309799F020912901222359F05D
:103AB0002091A50227FF07C0DC012C9111962C93C1
:103AC000119726E02C930280F381E02D099508954B
:103AD000E0917C02F0917D02309739F022E0DC0128
:103AE0002C930480F581E02D0995089520917A02A8
:103AF00030917B022817390771F090937B028093F5
:103B00007A02E0917C02F0917D02309721F00680EC
:103B1000F781E02D0995089520917802309179027E
:103B20002817390771F09093790280937802E09119
:103B30007C02F0917D02309721F00084F185E02D28
:103B400009950895FC01329680912901882321F07E
:103B50008091A5029EE187FF96E080E0915008F4F5
:103B6000089521912223D1F38F5FF8CF662301F1CD
:103B7000209129012223F1F02091A50227FF1AC0EC
:103B8000462F4695469546954E3190F4677021E054
:103B900030E002C0220F331F6A95E2F7840F911DB7
:103BA000FC01828190E02823392381E0232B69F4F2
:103BB00080E00895FC01329608962191261721F0A5
:103BC000E817F907D1F7F4CF81E008959C01FC01D3
:103BD00032969FEF80E04191461751F09F3F19F4D4
:103BE000411101C0982F8F5F8630A9F79F3F09F4DC
:103BF0000895290F311D97FD3A95F90162830895C3
:103C0000FC01329608962191261303C0DF0111971B
:103C10001C92E817F907B9F70895E62FE695E6959F
:103C2000E695EE3168F4E80FF92FF11D677021E099
:103C300030E001C0220F6A95EAF78281822B8283ED
:103C40000895E62FE695E695E695EE3170F4E80FD7
:103C5000F92FF11D677021E030E001C0220F6A9555
:103C6000EAF7209582812823228308952091290153
:103C7000222339F02091A50227FF03C00E940D1EC8
:103C800008950E94E61D089520912901222339F00C
:103C90002091A50227FF03C00E94211E08950E94C3
:103CA000001E0895FC01329680912901882351F06D
:103CB0008091A50287FF06C08EE1DF011D928A95E3
:103CC000E9F7089586E0F9CF46E050E00E94292701
:103CD00021E0892B09F420E0822F089508950E94A5
:103CE0006E1E0895811106C081E080937E020E94BD
:103CF0006F1E089582E0F9CF83E080937E020E94D8
:103D00006F1E08950E94721E089581E080937E02C6
:103D10000E946F1E08950E94851E089508950895BB
:103D20000E948F1E0895089508950E948E1E089582
:103D3000CF930E94931E0E94EC100E94941EC0E03C
:103D40008C2F0E943D10811105C0CF5FC330C1F799
:103D5000CF91089581E0FCCF85B7806885BF85B796
:103D6000806885BF08951F921FB61F9211248F93FC
:103D70009F93AF93BF9380917F02811113C0809175
:103D8000CD029091CE02A091CF02B091D002419687
:103D9000A11DB11D8093CD029093CE02A093CF02BE
:103DA000B093D002BF91AF919F918F911F901FBE92
:103DB0001F9018958091D502843031F10E9415032F
:103DC00010927F0288E190E020E40FB6F894A89565
:103DD000809360000FBE2093600083B7817F846072
:103DE00083BF83B7816083BF7894889583B78E7FC4
:103DF00083BF0FB6F894A895809160008861809386
:103E00006000109260000FBE08950E949D060E94FF
:103E10001C03089582E084BD93E095BD9AEF97BDA1
:103E200080936E0008952FB7F8948091CD02909101
:103E3000CE02A091CF02B091D0022FBF08952FB72C
:103E4000F8946091CD027091CE028091CF02909152
:103E5000D0022FBF08959C014FB7F8948091CD02F6
:103E60009091CE02A091CF02B091D0024FBF821BA1
:103E7000930B089578941F921FB61F9211248F936D
:103E80009F93AF93BF938091CD029091CE02A0916A
:103E9000CF02B091D0020196A11DB11D8093CD0239
:103EA0009093CE02A093CF02B093D002BF91AF9176
:103EB0009F918F911F901FBE1F90189587E797E7DE
:103EC000909301088093000888E19AE00FB6F89477
:103ED000A895809360000FBE90936000FFCF88E1AB
:103EE0009AE00FB6F894A895809360000FBE909367
:103EF0006000FFCF8091A302089508959C0182E0A5
:103F00008093E9009FEF8091E800915085FD06C005
:103F100085ED8A95F1F700009111F5CF8091E800C9
:103F200085FF0CC050E040E066E070E0C9010E94EF
:103F3000C3218091E8008E778093E8000895CF93A5
:103F4000DF93EC01809129018823B1F18091A502D2
:103F500087FF32C060E282E08093E9008FEF9091AA
:103F6000E800815095FD06C095ED9A95F1F70000A7
:103F70008111F5CF8091E80085FF1BC08091290158
:103F800070E050E040E0811104C050E040E068E0A3
:103F900070E0CE010E94C3218091E8008E7780936B
:103FA000E80080E2FE01A3E8B2E001900D928A955C
:103FB000E1F7DF91CF91089568E081E0CDCF809364
:103FC000800270938202609381028091D5028430D6
:103FD00001F582E08093E9008FEF9091E800815035
:103FE00095FD06C095ED9A95F1F700008111F5CF8A
:103FF0008091E80085FF0DC050E040E063E070E094
:1040000080E892E00E94C3218091E8008E7780933F
:10401000E8000895BC0184E00E94DF1F0895BC0100
:1040200083E00E94DF1F08958091D402811109C0AE
:104030000E9453230E94B0238091E2008460809309
:10404000E20008951092D40208950E94851E0895FA
:104050006091D10281E0611101C080E00E947C1E6C
:1040600008959091D50281E0943009F080E060914C
:10407000D1020E94821E089542E061EC81E00E941C
:10408000CF2242E261EC82E00E94CF229091D502E1
:1040900081E0943009F080E06091D1020E94721EAC
:1040A00008958091D702833009F461C030F48130E3
:1040B000D1F1823009F49EC008958A3009F48AC093
:1040C0008B3009F46FC0893009F050C08091D6025E
:1040D000813209F04BC08091DA029091DB020297A5
:1040E00008F044C08091E800877F8093E8008091C9
:1040F000E80082FF37C09091F3008091F2000297B0
:1041000031F48091F100813011F0863021F48091FA
:10411000F1008093A3028091E8008B778093E80000
:104120000E94032323C08091D602813AF9F4809142
:10413000E800877F8093E8008091DA029091DB02AB
:10414000892B61F460E283E892E070E00E94122221
:104150008091E8008B778093E800089560E090E01C
:1041600080E0F3CF8091D5028111C1CF0895809175
:10417000D602813AD9F78091DA029091DB02892B3D
:10418000A9F78091E800877F8093E8008091E8009C
:1041900080FFFCCF809129018093F1008091E8009D
:1041A0008E77BCCF8091D602813201F78091DA02FE
:1041B0009091DB02892BD1F68091E800877F809374
:1041C000E8000E9403238091D802809329010E9475
:1041D0009D0608958091D602813241F68091E800D3
:1041E000877F8093E8000E9403238091D902809307
:1041F000A40208958091D602813A09F0B7CF809148
:10420000E800877F8093E8008091E80080FFFCCF82
:104210008091A402C1CF84B7877F84BF0FB6F89482
:10422000A895809160008861809360001092600082
:104230000FBE80E890E00FB6F894809361009093F1
:1042400061000FBE0E948B1E08950E9453230E949E
:10425000B023E2EEF0E080818460808378940E9455
:104260002F2608958DE191E00E943C1D08958091D4
:10427000D502853031F48091D502853019F00E9445
:10428000051F08950E94DA1E8091D302882399F3B6
:104290000E94981E882379F30E94AD210E949D06FA
:1042A000EACF08950E9455210895292F33272330FE
:1042B000310519F168F42130310509F444C0223088
:1042C000310509F445C090E080E030E020E025C0F1
:1042D0002132310549F122323105A9F780E490E01D
:1042E0002CE134E061157105C1F086EB90E026E623
:1042F00033E06130710589F0E6CF9927813091056F
:1043000081F0009729F00297F1F6E5EDF2E002C0A6
:10431000E5E1F3E0849190E09F01FA01318320838D
:104320000895EBEFF2E0F6CF89E090E02BE233E086
:104330006115710591F389E090E024E433E0613088
:10434000710559F3C0CF82E190E024E533E0E5CF79
:104350008BE390E029E133E0E0CF80E189BD82E1A9
:1043600089BD09B400FEFDCF8091D8008F7D809378
:10437000D8008091E00082608093E0008091E000AE
:1043800081FDFCCF0895AF92BF92CF92DF92FF9252
:104390000F931F93CF93DF936C01EB018A010E946F
:1043A0002223F82E811123C00115110539F0F801DF
:1043B00080819181C81BD90BC80ED91EB12CA12CAC
:1043C0002097A9F08091E80085FD22C08091E80047
:1043D0008E778093E80001151105A1F0F801808126
:1043E0009181A80EB91EB182A08285E0F82E8F2D92
:1043F000DF91CF911F910F91FF90DF90CF90BF90F1
:10440000AF9008950E9422238823D1F2F82EEFCF97
:10441000F60181916F018093F1002197FFEFAF1AB0
:10442000BF0ACECFFC018091DC029091DD0286179D
:104430009707A0F06115710529F49091E8009E7727
:104440009093E80090E06115710551F4911108C056
:104450008091E80082FF34C080E00895BC01F2CF73
:104460008091D5028823C1F18530C1F18091E800A7
:1044700083FD30C08091E80082FDEACF8091E800A2
:1044800080FFE1CF8091F3002091F200382F611579
:10449000710519F02830310558F091E028303105C8
:1044A00009F090E02091E8002E772093E800CBCF30
:1044B00081918093F100615071092F5F3F4FE7CFE9
:1044C0008091D502882341F0853041F08091E80049
:1044D00083FFBECF81E0089582E0089583E00895D0
:1044E000FC018091DC029091DD0286179707A0F015
:1044F0006115710529F48091E8008E778093E800BA
:1045000090E06115710551F4911108C08091E800A7
:1045100082FF35C080E00895BC01F2CF8091D502C2
:104520008823C9F18530C9F18091E80083FD31C04D
:104530008091E80082FDEACF8091E80080FFE1CF22
:104540008091F3002091F200382F6115710519F068
:104550002830310558F091E02830310509F090E01D
:104560008091E8008E778093E800CBCF8491809390
:10457000F1003196615071092F5F3F4FE6CF809176
:10458000D502882341F0853041F08091E80083FF17
:10459000BDCF81E0089582E0089583E00895982FCB
:1045A000973028F08F708093E90081E00895909310
:1045B000E900242F762F50E0981731F07091EC002D
:1045C0002091ED005091F00021FD02C09F5FE8CFE7
:1045D0003091EB003E7F3093EB003091ED003D7F5A
:1045E0003093ED003091EB0031603093EB0070932D
:1045F000EC002093ED005093F0002091EE0027FD99
:10460000E5CF80E008958091D60287FF13C08091A6
:10461000E80082FF06C08091E8008B778093E80075
:1046200004C08091D5028111F2CF08958091D50206
:104630008823D9F38091E80080FFF8CF8091E800CB
:104640008E77ECCF2091E4003091E50095E6A9014A
:104650002091EC00822F817020FF06C08091E8003D
:1046600080FF06C080E008952091E80022FD1AC076
:104670008091D502882389F0853089F08091EB0004
:1046800085FD0FC02091E4003091E50042175307EB
:10469000F9F29150E1F684E0089582E0089583E014
:1046A000089581E008950E94C2230E94CA23E0EE8B
:1046B000F0E0808181608083E8EDF0E080818F7799
:1046C000808319BCA7EDB0E08C918E7F8C938081A4
:1046D0008F7E80831092D40208950F931F93CF93FF
:1046E000DF930E94C2230E94CA23C8EDD0E08881D4
:1046F0008F77888388818068888388818F7D88838D
:1047000019BC1092D5021092D1021092D3021092CD
:10471000D20200EE10E0F80180818B7F80838881D7
:104720008160888342E060E080E00E94CF22E1EE79
:10473000F0E080818E7F8083E2EEF0E08081816016
:104740008083808188608083F80180818E7F808370
:10475000888180618883DF91CF911F910F910895A7
:10476000E8EDF0E080818F7E8083E7EDF0E08081EE
:104770008160808384E082BF81E08093D4020E94C4
:104780006D230895E8EDF0E080818E7F80831092A4
:10479000E20008951092DA001092E10008951F924D
:1047A0000F920FB60F9211242F933F934F935F9365
:1047B0006F937F938F939F93AF93BF93EF93FF93E9
:1047C0008091E10082FF0BC08091E20082FF07C070
:1047D0008091E1008B7F8093E1000E942E268091E2
:1047E000DA0080FF19C08091D80080FF15C0809149
:1047F000DA008E7F8093DA008091D90080FF96C026
:1048000080E189BD82E189BD09B400FEFDCF81E070
:104810008093D5020E9414208091E10080FF19C08E
:104820008091E20080FF15C08091E2008E7F80932E
:10483000E2008091E20080618093E2008091D800E4
:1048400080628093D80019BC85E08093D5020E94D5
:1048500028208091E10084FF2BC08091E20084FF3A
:1048600027C080E189BD82E189BD89B5982F91700B
:1048700080FFFBCF8091D8008F7D8093D8008091FE
:10488000E1008F7E8093E1008091E2008F7E809333
:10489000E2008091E20081608093E2008091D10289
:1048A000882309F449C084E08093D5020E94312016
:1048B0008091E10083FF29C08091E20083FF25C041
:1048C0008091E100877F8093E10082E08093D502B0
:1048D0001092D1028091E1008E7F8093E10080915F
:1048E000E2008E7F8093E2008091E20080618093FD
:1048F000E20042E060E080E00E94CF228091F00080
:1049000088608093F0000E942520FF91EF91BF9175
:10491000AF919F918F917F916F915F914F913F9157
:104920002F910F900FBE0F901F90189519BC1092E9
:10493000D5020E94222070CF8091E30087FD93E092
:104940009093D502B3CF1F920F920FB60F921124FE
:104950002F933F934F935F936F937F938F939F9387
:10496000AF93BF93CF93DF93EF93FF93D091E90081
:10497000DF708091EC00C82FC17080FDC0E81092FC
:10498000E9008091F000877F8093F00078940E9486
:10499000E7241092E9008091F00088608093F00095
:1049A000CD2BCF70C093E900FF91EF91DF91CF91B4
:1049B000BF91AF919F918F917F916F915F914F9137
:1049C0003F912F910F900FBE0F901F901895AAE264
:1049D000B0E0EDEEF4E20C94E82686ED92E0209152
:1049E000F100FC012193CF01F2E08E3D9F07B9F762
:1049F0000E9451208091E80083FF1EC18091D60261
:104A00009091D7029A3008F017C1E92FF0E0E457EF
:104A1000F84D0C94A226803899F0823809F00CC128
:104A20008091DA028F70873008F006C18093E90028
:104A30008091EB0085FB882780F91092E90006C081
:104A40008091D2029091D302911182609091E800FE
:104A5000977F9093E8008093F1001092F10080918D
:104A6000E8008E77E5C0882309F4D3C0823009F0CE
:104A7000E3C08091D8028111D6C08091DA028F7094
:104A80002FEF280F263008F0D7C08093E90020913F
:104A9000EB0020FFC8C0933031F48091EB008062BE
:104AA0008093EB00C0C09091EB0090619093EB007D
:104AB00021E030E001C0220F8A95EAF72093EA0056
:104AC0001092EA008091EB008860EACF8111B4C0B7
:104AD0001091D8021F778091E3008078812B80931A
:104AE000E3008091E800877F8093E8000E94032321
:104AF0008091E80080FFFCCF8091E3008068809384
:104B0000E30082E0111183E08093D50295C08058C4
:104B1000823008F091C08091D8029091D9028C3DEA
:104B200023E09207A1F583E08A838AE289834FB765
:104B3000F894DE01139620E03EE051E2E32FF0E02E
:104B400050935700E49120FF03C0E295EF703F5F60
:104B5000EF708E2F90E0EA30C0F0C7968D939D9352
:104B60002F5F243159F74FBF8091E800877F8093F2
:104B7000E8006AE270E0CE0101960E941222809164
:104B8000E8008B778093E80057C0C096E7CF60912C
:104B9000DA027091DB02AE014F5F5F4F0E9452213B
:104BA000BC01892B09F448C09091E800977F90934D
:104BB000E80089819A810E947022E1CF8038E1F576
:104BC0008091E800877F8093E8008091D1028093F4
:104BD000F10045CF811130C09091D802923060F53C
:104BE0008091E800877F8093E8009093D1020E9433
:104BF00003238091D102882311F084E005C08091C5
:104C0000E30087FDFACF81E08093D5020E943C202B
:104C100013C08091D802813079F481E0933009F09B
:104C200080E08093D3021092E9008091E800877FB2
:104C30008093E8000E9403238091E80083FF0AC06C
:104C40008091E800877F8093E8008091EB0080628C
:104C50008093EB00AA96E3E00C9404270895CF9389
:104C60008091D5028823A1F0C091E900CF70909186
:104C7000EC00892F817090FD80E8C82B1092E9002C
:104C80008091E80083FD0E94E724CF70C093E90083
:104C9000CF91089587FB082E062687FD819567FD35
:104CA00061950E9410270EF4919507FC8195089557
:104CB000AA1BBB1B51E107C0AA1FBB1FA617B70742
:104CC00010F0A61BB70B881F991F5A95A9F780955E
:104CD0009095BC01CD01089597FB072E16F4009422
:104CE00007D077FD09D00E94582607FC05D03EF476
:104CF000909581959F4F0895709561957F4F089588
:104D0000A1E21A2EAA1BBB1BFD010DC0AA1FBB1FCF
:104D1000EE1FFF1FA217B307E407F50720F0A21B41
:104D2000B30BE40BF50B661F771F881F991F1A94AE
:104D300069F760957095809590959B01AC01BD01D8
:104D4000CF010895EE0FFF1F0590F491E02D099417
:104D50000E94B026332312F48A1B9B0B0C94C126AD
:104D6000A29FB001B39FC001A39F700D811D1124AC
:104D7000911DB29F700D811D1124911D08950E94F7
:104D8000B026B7FF0895821B930B08950E94B026AA
:104D9000A59F900DB49F900DA49F800D911D11248F
:104DA0000895B7FF0C94C6260E94C626821B930B5B
:104DB00008952F923F924F925F926F927F928F92BF
:104DC0009F92AF92BF92CF92DF92EF92FF920F939A
:104DD0001F93CF93DF93CDB7DEB7CA1BDB0B0FB6A4
:104DE000F894DEBF0FBECDBF09942A883988488861
:104DF0005F846E847D848C849B84AA84B984C884F7
:104E0000DF80EE80FD800C811B81AA81B981CE0FED
:104E1000D11D0FB6F894DEBF0FBECDBFED010895D2
:104E2000991B79E004C0991F961708F0961B881FFC
:104E30007A95C9F780950895FC014150504030F0B3
:104E400001900616D1F73197CF0108958827992749
:104E50000895FB01DC0104C08D910190801921F4BB
:104E600041505040C8F7881B990B0895F999FECF1F
:104E700092BD81BDF89A992780B50895A6E1B0E06A
:104E800044E050E00C947027A8E1B0E042E050E02C
:104E90000C947027262FF999FECF92BD81BDF89A08
:104EA000019700B4021639F01FBA20BD0FB6F8946E
:104EB000FA9AF99A0FBE08950396272F0E944B275E
:104EC0000E944A27252F0E944B27242F0C944B2702
:104ED0000196272F0E944B270C944A27DC01CB0117
:104EE000FC01F999FECF06C0F2BDE1BDF89A3196FA
:104EF00000B40D9241505040B8F70895F894FFCF98
:104F00006D046D049E049E042B054705CD04CD045D
:104F10005205DE05ED05ED050B2533251C26332551
:0C4F20001C26662587251C26DE25EA25B8
:104F2C002802280850011E0A140101010200090080
:104F3C00090901191A1B1C1D1E1F2021227A1F9FF3
:104F4C001F7E1F0F200A207D1F01E200E900EA00EE
:104F5C00B500B600B700CD008301CC008A019201E8
:104F6C0094012102230224022502260227022A028E
:104F7C00B300B4006F007000818283E200E900EAA4
:104F8C0000B500B600B700CD008301CC008A0192B9
:104F9C000194012102230224022502260227022A5F
:104FAC0002B300B4006F0070008182839497356661
:104FBC00C6340001020202020606060909090909A3
:104FCC00090F0F0F0F0F0F1515151819191919199E
:084FDC00191919191923240009
:00000001FF
