:100000000C942E020C944B020C944B020C944B0259
:100010000C944B020C944B020C944B020C944B022C
:100020000C944B020C944B020C9494230C94682473
:100030000C94781E0C944B020C944B020C944B02C3
:100040000C944B020C944B020C944B020C944B02FC
:100050000C944B020C94FF1E0C944B020C944B021C
:100060000C944B020C944B020C944B020C944B02DC
:100070000C944B020C944B020C944B020C944B02CC
:100080000C944B020C944B020C944B020C944B02BC
:100090000C944B020C944B020C944B020C944B02AC
:1000A0000C944B020C944B020C944B020400050080
:1000B0000600C35CC45CC55CCA5CCB5CA85D000484
:1000C0007F3F1F643214643214783C1E1E140A05EC
:1000D0002223252628292A2C2D2F30323335363855
:1000E0003A3B3D3E4042434547494A4C4E505153AE
:1000F0005557595A5C5E6062646668696B6D6F71D2
:10010000737577797B7D7F81838587898A8C8E90D3
:10011000929496989A9C9E9FA1A3A5A7A8AAACAEDC
:10012000AFB1B3B4B6B8B9BBBCBEBFC1C2C3C5C61C
:10013000C7C9CACBCCCDCED0D1D2D2D3D4D5D6D7C5
:10014000D7D8D9D9DADADBDBDBDCDCDCDCDCDDDD03
:10015000DDDDDCDCDCDCDCDBDBDBDADAD9D9D8D7F3
:10016000D7D6D5D4D3D2D2D1D0CECDCCCBCAC9C795
:10017000C6C5C3C2C1BFBEBCBBB9B8B6B4B3B1AFCC
:10018000AEACAAA8A7A5A3A19F9E9C9A989694926C
:10019000908E8C8A89878583817F7D7B7977757343
:1001A000716F6D6B6968666462605E5C5A59575521
:1001B0005351504E4C4A4947454342403E3D3B3ADD
:1001C0003836353332302F2D2C2A29282625232264
:1001D000FFAA7F5540000101010101010101010257
:1001E00002020202020202020303030303030303E7
:1001F00004040404040404050505050506060606B2
:1002000006070707070708080808090909090A0A6D
:100210000A0B0B0B0C0C0C0D0D0D0E0E0E0F0F0F11
:10022000101011111112121313141415151616179C
:1002300017181819191A1A1B1B1C1D1D1E1E1F200A
:1002400020212222232424252626272829292A2B57
:100250002C2D2D2E2F30313232333435363738397C
:100260003A3B3C3D3E3F4041424344454647484976
:100270004A4C4D4E4F50515354555658595A5B5D48
:100280005E5F616264656668696B6C6D6F707273E6
:100290007577787A7B7D7E8082838587888A8C8E4D
:1002A0008F91939596989A9C9EA0A2A3A5A7A9AB7F
:1002B000ADAFB1B3B5B7BABCBEC0C2C4C6C9CBCD71
:1002C000CFD1D4D6D8DBDDDFE2E4E7E9EBEEF0F323
:1002D000F5F8FAFDFF2403720065007600650072F0
:1002E00000730065005F006D006F0075006E0074A4
:1002F000005F006C00650064000000180373006B71
:100300000065006C00650074006F006E006B006299
:1003100000640000000403090409023B000201001C
:10032000A0FA0904000001030101000921110100E4
:1003300001224000070581030800010904010001B2
:100340000300000009211101000122B60007058207
:10035000032000011201000200000008EDFE000071
:1003600000010102000105010902A1018502090144
:10037000A100050919012908150025019508750135
:1003800081020501093009311581257F9502750823
:10039000810609381581257F950175088106050CB0
:1003A0000A38021581257F950175088106C0C005B0
:1003B000010980A101850319012AB700150126B79B
:1003C00000950175108100C0050C0901A10185048B
:1003D00019012AA002150126A002950175108100BD
:1003E000C005010906A1018506050719E029E715E1
:1003F0000025019508750181020507190029EF15EF
:1004000000250195F075018102050819012905955E
:100410000575019102950175039101C00501090659
:10042000A101050719E029E71500250195087501C7
:1004300081029501750881010507190029FF150042
:1004400026FF009506750881000508190129059504
:100450000575019102950175039101C011241FBE1C
:10046000CFEFDAE0DEBFCDBF11E0A0E0B1E0E6EB18
:10047000FEE402C005900D92A83BB107D9F722E037
:10048000A8EBB1E001C01D92AC3DB207E1F70E94BC
:100490006B110C9443270C94000081E0089581E0D7
:1004A00008950E944F02089508950E9454020895ED
:1004B000A5E0B0E0EEE5F2E00C94AD2649835A8366
:1004C0003091BB0189819A81311119C0662399F05D
:1004D000222389F00E946E08182F682F89819A8143
:1004E0000E944A0869817A81812F0E94F30E259625
:1004F000E3E00C94C9260E945C08182FF3CF0E94F9
:100500006E0869817A81F1CFFC01262F40815181EB
:100510006281738184810E945802089581E0089568
:10052000CF93DF93EC0160E00E948402BE010E9441
:100530005502DF91CF9108950E94321008950E94D4
:100540003610089508950E9499060E94A2022FEF86
:1005500084E39CE0215080409040E1F700C000001F
:1005600008950E94A3020E94231F08950E94A302DF
:100570000E94341F08950F931F93CF93DF938C0134
:1005800061E00E948402EC01B8010E9451028111D5
:1005900006C080E0DF91CF911F910F910895B801BF
:1005A000CE010E94AA1C8823A1F3B801CE010E94AB
:1005B000DF1A882371F3B801CE010E941C1C882326
:1005C00041F3B801CE010E94EB19882311F3F80121
:1005D0008281882361F0CB35FDE5DF0701F158F416
:1005E000C115ECE5DE0791F0CF3DDC4591F0C80187
:1005F0000E944D02CFCFCD358DE5D80769F090F040
:10060000C83ADD45A1F70E94B602C3CF0E94B102ED
:10061000C0CF0E94340DF7CF0E946E0CE8CF0E942D
:10062000780CE5CF0E947C0CE2CF0E94551E0E9400
:10063000320308950E9436030E945A1E08950895B9
:100640000E941F03089581E008950E9423030895E6
:100650000895CF93C82F0E9420038C2F0E9425035A
:10066000CF91089580E00E94290308950E94061DFD
:100670000E94290308950E94061D9091BA019817BF
:1006800021F08093BA010E9429030895ABE0B0E005
:10069000ECE4F3E00C94AE264F83588769877A87A1
:1006A0008B8761110E94B90B1E821D8285E0FE01BD
:1006B0003796DE01119601900D928A95E1F78C81B3
:1006C0009D81892B61F449815A816B817C818D8167
:1006D0009E810E94E20A2B96E2E00C94CA26898150
:1006E0009A8189238F3F79F3CE0101960E948E0271
:1006F0008111E9CFF0CFFC01808191810E94A8088F
:100700000895CF93C82F8823B9F08CEF8C0F813ACE
:10071000A8F46C2F80910001909101010E947B1D33
:10072000882329F08C2F0E94790B0E94DA0B8C2FE2
:100730000E94710B0E94DA0BCF91089580E28C0F1A
:10074000883048F4C77081E001C0880FCA95EAF785
:100750000E949C0BEFCFEBE5EC0FE33040F4F0E0B0
:10076000E85AFE4F808190E00E943B1DE5CFE8E50E
:10077000EC0FE73150F4F0E0EE0FFF1FE65DFE4FA7
:10078000808191810E94511DD7CFCD3EA8F28C2F40
:100790000E94EF110E94C212CFCF882379F19CEF03
:1007A000980F913A28F40E94790B0E94DA0B089571
:1007B00090E2980F983050F4877091E001C0990F43
:1007C0008A95EAF7892F0E94A20BEFCF9BE5980F3D
:1007D000933028F490E080E00E943B1D089598E556
:1007E000980F973128F490E080E00E94511D089501
:1007F0008D3E20F00E9449120E94C21208951F935C
:10080000CF93DF93182FEB010E948103209739F4D7
:10081000812F0E94CD03DF91CF911F9108958FE921
:100820009FE00197F1F700C000002197EFCF70E043
:1008300060E0893311F460E570E00E94FF030895E1
:10084000882321F00E949C0B0E94DA0B08958823D4
:1008500021F00E94A20B0E94DA0B0895B0E0A0E004
:10086000E4E3F4E00C94A7266C01D62FC72FFC011B
:100870001281F580F2949FE0F9220E94920BE82EFB
:100880008823B9F0E12E1123A1F08C2F807F8034D2
:1008900021F080E28D0F8830D0F08091A40282FF99
:1008A00016C082E00E943D0C0E94920B91E0E82E5F
:1008B000E926BC2EB2948FE0B822FBE0FB1508F4C9
:1008C00068C0EB2DF0E0EB5BF84D0C946726E12C53
:1008D000F0CF0C2F0F70C07F11F00295007F112315
:1008E00099F0002359F080E28D0F883010F0D1117B
:1008F00007C0802F0E949C0B0E94DA0B8D2F41C0F5
:10090000802F0E94AC0BF8CF8D2F0E94CD030023C7
:1009100009F43FC080E28D0F883010F0D11104C07F
:10092000802F0E94A20B03C0802F0E94B20B0E9456
:10093000DA0B2FC00C2F0F70C07FC03211F0029560
:10094000007FDD2381F0D13009F463C0112309F465
:100950006DC0FF2009F463C0F601858180FFCECF12
:100960008F7085835CC08091A40282FD33C0112307
:1009700059F0002329F0802F0E949C0B0E94DA0B73
:1009800080E00E94810305C080E00E94CD03011138
:10099000C7CFEB2DE850FF0B349720F40E94061DC3
:1009A0000E942903EE2089F00E948E0B80FD0DC06D
:1009B000F60112820E94880B0E945207C6010E9413
:1009C00059060E94880B0E947407CDB7DEB7E9E094
:1009D0000C94C326112389F0F11006C00E94BC0BB1
:1009E000802B0E942004D5CF21E0F212F7CF0E9485
:1009F000BC0B802B0E94C30BCCCFF11006C00E9411
:100A0000D00B802F0E942704C4CF31E0F31609F2E7
:100A1000F6CF112331F085E08F1508F4BACF802F7F
:100A2000E0CF94E09F1508F4B4CFEBCFFF2049F35B
:100A3000D93349F4FFEF27EE33E0F1502040304046
:100A4000E1F700C000008D2F0E94CD03A2CF8C2FB4
:100A500086958695837069F0813009F09ACF8D2F45
:100A60009C2F9370111102C090E080E00E94511DF4
:100A700090CF8D2F9C2F9370111102C090E080E0D9
:100A80000E943B1D86CF8D2F112329F00E94EF116C
:100A90000E94C2127ECF0E944912FACF8C2F83701F
:100AA00009F041C0111175CF4D2F42954695477001
:100AB000440F440F0D2F0F7010E030E020E0042EA3
:100AC00004C0000F111F221F331F0A94D2F760E0E9
:100AD00070E0CB01D4FF0FC06FE070E080E090E0E9
:100AE00004C0660F771F881F991F4A95D2F760953B
:100AF000709580959095C695C695C370602B712BA7
:100B0000822B932BC23049F058F4C13019F00E9467
:100B1000FD063FCF0E94EA063CCF0E94100739CF66
:100B20000E94E70636CF8695112311F08C2F817035
:100B3000882309F42ECF4D2F429546954770440FD8
:100B4000440F0D2F0F7010E030E020E0042E04C0A1
:100B5000000F111F221F331F0A94D2F760E070E0CC
:100B6000CB01D4FF0FC06FE070E080E090E004C0E4
:100B7000660F771F881F991F4A95D2F76095709569
:100B800080959095C695C695C370602B712B822B6E
:100B9000932BC23049F058F4C13019F00E94CD07B0
:100BA000F8CE0E94BA07F5CE0E94E007F2CE0E946E
:100BB0002907EFCECF70112329F08C2F0E94520706
:100BC0008D2F0FCF8D2F0E9427048C2F0E9474072A
:100BD000E0CED23F51F160F4D03FB9F0D13F81F087
:100BE000112309F449C0F11089CE8C2F8F7121C0D7
:100BF000D33F11F1D43FA1F78091A40282FD26C01A
:100C00008C2F8F71112311F314C0112349F084E04C
:100C10008F1508F4BECE8C2F8F710E949807B9CE25
:100C200095E09F1508F4B5CEF6CF8C2F8F7111117A
:100C3000CDCF0E945207ADCE112329F08C2F8F719A
:100C40000E943C07A6CE0E943607A3CE112349F08E
:100C5000CF718C2F0E94520763E08C2F0E941F0CD3
:100C600098CE81E00E943D0CE1E0EF1508F091CEB6
:100C700082E00E943D0C8DCEF110DACE8C2F8F7168
:100C8000A5CF0F931F93CF93DF93EC0168817981F8
:100C90008A810E94B3088C010E94F3070E94E60635
:100CA000B801CE010E942E04DF91CF911F910F91C8
:100CB0000895CF93DF93EC018B819C81892B29F0E0
:100CC0008881998189238F3F51F4DF91CF910895D5
:100CD000CE010E944106CE010E949002F6CFCE01C5
:100CE0000E94BB028111F4CF0E94920B882369F30A
:100CF0008A81882351F38091A40282FFE6CF82E0AB
:100D00000E943D0CE2CF90E080E00E943B1D90E00D
:100D100080E00E94511D0E94B90B0E94DA0B0E94D4
:100D2000D3130E94C21208950E94810B0E94830671
:100D300008950E94A90B0E949406089592959F70B1
:100D4000963091F058F4925F9F70923058F4803F43
:100D500019F030F4883E30F481E008959A5FF4CFC2
:100D6000843FD1F380E00895883EB0F3813FD1F70E
:100D7000F3CFFC01808191810E94A8080E949E0609
:100D80000895A5E0B0E0E7ECF6E00C94AE262596D9
:100D9000E2E00C94CA26A6E0B0E0E1EDF6E00C94A7
:100DA000AE262696E2E00C94CA2608950E94D50647
:100DB00008950E94D6066093CA017093CB01809378
:100DC000CC019093CD010E948306089508950E945E
:100DD000D90608950F931F930091CA011091CB017A
:100DE0002091CC013091CD01602B712B822B932B64
:100DF0000E94D9061F910F9108950F931F930091A0
:100E0000CA011091CB012091CC013091CD0160231A
:100E10007123822393230E94D9061F910F91089575
:100E20000F931F930091CA011091CB012091CC0127
:100E30003091CD0160277127822793270E94D90620
:100E40001F910F9108950E94D50608950E942307CF
:100E500008950E9426076093C6017093C70180938E
:100E6000C8019093C9010E948306089560E070E074
:100E7000CB010E94290708950F931F9341E050E092
:100E800060E070E08A019B0104C0000F111F221F67
:100E9000331F8A95D2F7C901B8010E9429071F9113
:100EA0000F9108950F931F9341E050E060E070E0D0
:100EB00004C0440F551F661F771F8A95D2F7809193
:100EC000C6019091C701A091C801B091C9018A01E2
:100ED0009B01082B192B2A2B3B2BC901B8010E941F
:100EE00029071F910F9108950F931F9341E050E040
:100EF00060E070E004C0440F551F661F771F8A959D
:100F0000D2F7CB01BA0160957095809590950091CC
:100F1000C6011091C7012091C8013091C901602319
:100F20007123822393230E9429071F910F91089513
:100F30000F931F9341E050E060E070E004C0440F65
:100F4000551F661F771F8A95D2F78091C601909131
:100F5000C701A091C801B091C9018A019B0108276E
:100F600019272A273B27C901B8010E9429071F9189
:100F70000F9108950F931F930091C6011091C7011F
:100F80002091C8013091C901602B712B822B932BCA
:100F90000E9429071F910F9108950F931F930091AD
:100FA000C6011091C7012091C8013091C901602389
:100FB0007123822393230E9429071F910F91089583
:100FC0000F931F930091C6011091C7012091C80192
:100FD0003091C90160277127822793270E94290732
:100FE0001F910F9108950895262F277091E001C059
:100FF000990F2A95EAF723E0769567952A95E1F708
:1010000025E0269FF001279FF00D1124E40FF51F26
:1010100050E040E0682F70E08191DF0111979B0163
:10102000042E02C0369527950A94E2F72170219587
:101030002827292328272C934F5F5F4F45305105E0
:1010400059F70895A82FA77023E0969587952A95BC
:10105000E1F725E0289FF001299FF00D1124E60F0C
:10106000F71F50E040E080E0219130E00A2E02C0FE
:10107000369527950A94E2F721703327042E01C094
:10108000220F0A94EAF7822B4F5F5F4F45305105DC
:1010900059F70895262F933070F4833060F4682F49
:1010A00070E083E0989F600D711D11244CEB51E0BE
:1010B000822F0E94F4070895292F933068F483301B
:1010C00058F490E06CEB71E033E0239F800D911DAC
:1010D00011240E942208089580E00895B0E0A0E065
:1010E000E4E7F8E00C94A7268C01C090C601D090EC
:1010F000C701E090C801F090C9018091CA019091A8
:10110000CB01A091CC01B091CD01C82AD92AEA2AFD
:10111000FB2ACFE1D0E0BC2ED701C6010C2E04C0C3
:10112000B695A795979587950A94D2F780FD09C043
:10113000219788F7B12C8B2DCDB7DEB7E9E00C9461
:10114000C326B8018C2F0E940E0F019789F3F3CFAD
:10115000CF93DF93EC010E946E08BE010E940E0F38
:10116000DF91CF9108951F93CF93DF93EB0190917F
:10117000BB01992339F0CB010E94A808DF91CF91E0
:101180001F910895882369F0CB010E946E08182FE3
:10119000682FCE010E944A08BE01812F0E940E0FC7
:1011A000EDCFCB010E945C08182FF6CF1F93CF9391
:1011B000DF93C091CE0116E08091CF018C1304C063
:1011C000DF91CF911F910895D0E01C9FF0011D9FEA
:1011D000F00D1124E053FE4F4081518162817381F3
:1011E000848195810E94CB062196C770E5CF4091FE
:1011F00000025091010260910202709103028091FD
:101200000402909105020E94CB0608951F93CF938C
:10121000DF9380910502807F09F049C0809102022E
:10122000882309F444C08091CE01C091CF01609120
:10123000000270910102A0910302B0910402D62F26
:10124000D72316E0C81799F190E0109711F0DF3F0F
:1012500019F401968770F6CF189F9001199F300DF1
:101260001124F901E053FE4F41814713F2CF408131
:101270004613EFCF42814111ECCF438154814A1B89
:101280005B0B483C510528F7809105028F70806107
:1012900080930502F901EB52FE4F80818F708061CF
:1012A000808380E092E00E9459060E94D608DF9178
:1012B000CF911F910895A1E1B0E0E1E6F9E00C942F
:1012C000A6268C0185E0F801DE011D9601900D92A5
:1012D0008A95E1F7F801E28080E0C82E82E0D82EFE
:1012E00060910302709104026115710509F44EC109
:1012F0009091000220910102892F82238F3F09F4EF
:1013000045C140815181A380B480F0900202F50173
:10131000E61BF70BFF2009F4EAC080910502382F85
:10132000307FE83CF10508F0A3C031116DC0FE2C00
:10133000251316C0941314C0E11012C08F70806181
:10134000809305020E94F708C6010E945906809109
:101350000502F80185838F2D6196EAE00C94C22680
:10136000A114B10429F0842F85238F3F09F027C1F0
:1013700080E0F82FF170DF2E80FF3CC08091CE011D
:101380002091CF0136E0821315C04D875E878D8591
:101390009E850E94A808292F22952F702230F0F0F8
:1013A000243018F59F70F1F0F8019581907FD1F409
:1013B000D12C1EC090E0389FF001399FF00D112410
:1013C000E053FE4F6181651306C06081641303C062
:1013D0006281E6120FC001968770D5CF9F7011F021
:1013E000882331F3805E883018F3C8010E945906C3
:1013F000FD2CB1CFEE2009F4AECF809105028160C3
:1014000080930502F12CA7CF251306C0941304C0C6
:10141000F801EE2009F487C0C8010E94B9068823AC
:1014200019F1EE2009F180910502803270F02091CF
:1014300000023091010238872F831986BB86AA8665
:101440008C87CE0107960E94590686E0F801A0E03D
:10145000B2E001900D928A95E1F70E9406090E9480
:10146000F708FF24F39477CFC8010E945906F9CFFB
:10147000311113C07A2DB98AA88A6E2D89890E94EC
:10148000C10680E092E00E94590686E0F6011192C2
:101490008A95E9F70E94F708B5CF25130FC094137A
:1014A0000DC0E1100BC0F8018583C8010E945906E8
:1014B00086E0F60111928A95E9F74DCFC8010E94A6
:1014C000B906882389F2EE2079F2809105028032F4
:1014D00008F4BBCF20910002309101023A832983A6
:1014E0001B82BD82AC828E83CE010196ACCFE83CDC
:1014F000F10508F03EC0FE2CEE2009F4B5CF25130F
:101500002AC0941328C08091050280FD1BC0982F2B
:10151000907FC1F0F8018583903F31F0982F907F44
:10152000905F8F70892B8583C8010E94590686E0E1
:10153000F801A0E0B2E001900D928A95E1F70E94D7
:10154000F70809CF86E0F801A0E0B2E001900D9223
:101550008A95E1F700CFC8010E94B906811175CFC5
:1015600080910502816080930502C8010E9459069E
:10157000F2CE7A2DB98AA88A6E2D89890E94C10679
:1015800086E0F60111928A95E9F7D9CFEE2009F4A9
:101590006BCFC8010E94B906F82E882309F464CFE6
:1015A00086E0F801A0E0B2E001900D928A95E1F7A3
:1015B00080E092E00E947B030E940609C0CF81E098
:1015C0008E25D7CEACE0B0E0E8EEFAE00C94AD2684
:1015D0004F83588769877A878B879C87CE010796C8
:1015E0000E945B09882369F08A859B85892B39F0E5
:1015F0004F815885842F85238F3F09F06BC016E0FB
:101600005FC086E0FE013796DE01119601900D92D3
:101610008A95E1F78A859B85892B89F38F81988547
:1016200089238F3F61F32091CF0130E0C9010196FA
:10163000877099274091CE014817190671F40E94CE
:1016400099061092CF011092CE0186E0E0E0F2E020
:10165000DF011D928A95E9F7D2CF96E0929FD001E3
:10166000939FB00D1124A053BE4FFE0131960190FF
:101670000D929A95E1F78093CF010E94D608BFCFD3
:10168000819FC001112480539E4F0E945B098823D3
:10169000E9F0E091CE011E9FF0011124E053FE4FCE
:1016A0004081518162817381848195810E94CB0642
:1016B0008091CE0190E00196877099278093CE01AA
:1016C0008091CE019091CF018913DACF2C96E3E07F
:1016D0000C94C92669857A858B859C850E94CB06EA
:1016E0008ECF682F80910001909101010E94FB1D17
:1016F0000895682F80910001909101010E94091EB8
:10170000089580910001909101010E94171E089593
:10171000809126028595859585950895809126026C
:101720008770089590912602977081E009F480E017
:10173000089580914902089590914902892B8093E0
:101740004902089580959091490298239093490207
:10175000089510924902089590914802892B809330
:1017600048020895809590914802982390934802EA
:1017700008951092480208958091270208950895CF
:101780000E94BF0B08959091A40292FF08C090910F
:101790002702981721F0809327020E94C00B08951A
:1017A00080912702882329F01092270280E00E946E
:1017B000C00B0895CF93DF93E0910001F0910101F8
:1017C000809149028083E0910001F09101018081C4
:1017D00090914802892B808390912702992381F070
:1017E000E0910001F09101018081892B808380913B
:1017F0000001909101010E94671D81110E94D00B90
:10180000C0910001D091010140E250E066E072E039
:10181000CE010E94EE26892B59F080E2FE01A6E05F
:10182000B2E001900D928A95E1F7CE010E94131D5E
:10183000DF91CF91089508950E941B0C0895909117
:10184000A40292FF11C098E0899F90011124622B9D
:10185000609326020E945207809126028595859505
:1018600085950E941C0C08950E94520708951092BD
:10187000260280E00E941C0C08959091260280951B
:10188000892380932602282F277091F4282F082E71
:10189000000C330B9217130659F09091A40292FF9B
:1018A00007C08595859585950E9474070E94370C21
:1018B00008959091A40292FB222720F9281769F03D
:1018C00080FB92F99093A4028091A3029091A402CC
:1018D0000E94AA0C82E00E943D0C08958091A4020F
:1018E00082FB882780F991E089270E94590C08958E
:1018F00081E00E94590C089580E00E94590C0895DF
:101900006FEF7FEF90E080E00E942D27089590E038
:1019100080E00E94092721E0883E9E4F09F020E0E8
:10192000822F089582E090E00E94FB26089583E0D4
:1019300090E00E94FB260895CF9384E090E00E94FF
:10194000FB26C82F82E290E00E94FB26982F8C2F66
:10195000CF910895CF93C92F682F84E090E00E9423
:101960000F276C2F82E290E00E940F27CF910895FD
:10197000AB01BC018FE090E00E9421270895AB01EC
:10198000BC0183E190E00E942127089560E070E0AF
:10199000CB010E94BF0C089560E070E0CB010E9473
:1019A000B80C0E94C60C089568EE7EEF90E080E0CF
:1019B0000E942D2760E082E090E00E940F2760E007
:1019C00083E090E00E940F271092CA011092CB0191
:1019D0001092CC011092CD0160E084E090E00E9472
:1019E0000F2764E082E290E00E940F2760E085E02C
:1019F00090E00E940F2760E086E090E00E940F27B1
:101A00006FEF87E090E00E940F2740E050E0BA01BE
:101A100088E090E00E94212760E08DE090E00E9445
:101A20000F2740E050E0BA0188E190E00E942127B2
:101A300060E087E190E00E940F2740E050E0BA01AB
:101A40008CE190E00E94212770E060E080E290E06D
:101A50000E942D2740E050E0BA0188E190E00E940A
:101A600021270E94CC0C08950E94D40C0895682F61
:101A70008EE090E00E940F2708950E94E41E60937C
:101A800051027093520280935302909354026093D8
:101A90004D0270934E0280934F029093500208952E
:101AA000089508950E94510D089508950E94550DBE
:101AB00008958DEE9FE00E94FC1C0E94500D0E9434
:101AC000520D089581E008950E94620D08950895D1
:101AD00008950E94670D0E94680D08950E940C10E1
:101AE0000E94280308950E94CF1E0E94D2100E94D7
:101AF0006E0D0E940F190E94560D0895AAE0B0E0E5
:101B0000E4E8FDE00C94A5260E94E810C82E81119F
:101B10000E943D0D3AE4A32E32E0B32E10E000E027
:101B2000902E802F0E943910E82EF501F1905F0170
:101B3000F81609F440C08091550281FD0E943F10C3
:101B40008F2D8E25F82FF170FF2E80FD2DC081FD89
:101B50002DC082FF30C092E0D92E24E0F22E0E94E8
:101B6000640D882399F0DE829F82EF2081E009F4E2
:101B700080E088870E94D81E8160782F9A878987A5
:101B80004E815F8168858A850E944603F801E65B85
:101B9000FD4F8081F826F08281E0C11001C080E015
:101BA0002A96EBE00C94C126D12CD9CFDD24D39416
:101BB00082E0F82ED4CF0F5F1F4F0330110509F0DC
:101BC000AFCF8FEF89838A831B820E94D81E8160EA
:101BD000782F9D838C8349815A816B818D810E94EE
:101BE0004603DACF0E947E0D0E9442190E94DE1247
:101BF0000E943B030895CF93DF930E94130FEC01E3
:101C0000811521E5920708F042C0811530E5930760
:101C100008F09DC0883E910530F5803E910508F0A2
:101C200092C0883A910588F4853A910508F084C0FD
:101C30008130910509F487C0009709F484C00497A6
:101C400008F081C0D0E0C0E07EC08F3B9105D0F7A6
:101C5000C85AD0E0CC0FDD1FC55ADE4F0990D8819D
:101C6000C02DD46470C08115904250F4C11581E03C
:101C7000D80708F068C0CD3ED10520F3D06563C019
:101C8000C11590E4D907F0F2DF70D06A5CC081150D
:101C900025E5920700F5811534E5930708F08BC020
:101CA000811543E5940708F073C0C11582E5D80794
:101CB00008F469C0CE018370992721E030E002C0AA
:101CC000220F331F8A95E2F7C695C69580E2C89F1A
:101CD000E001112454C0C11599E5D907A8F4C11534
:101CE00028E5D20708F06CC0C11536E5D30708F027
:101CF000A9CF8C2F0E94AA0FC82FD0E0DC2FCC27B1
:101D0000CC27DF71D0621FC0C1154AE5D40708F4A3
:101D10005CC0CE0190568115904208F093CF8D2F74
:101D20008F710E94AA0F90E0982F882788279F71B3
:101D30009C012C2BE901E6CFC55AD0E0C757DE4FF6
:101D4000C881D0E0D064CE01DF91CF910895E4E066
:101D500096958795EA95E1F783702C2F2695269521
:101D6000237040E2249F90011124382B8C2F837024
:101D7000C1E0D0E002C0CC0FDD1F8A95E2F7C22B94
:101D8000D32BDC68E0CFDC2FCC27C16FD06ADBCF50
:101D90008370992721E030E002C0220F331F8A951B
:101DA000E2F7C695C69590E2C99FE0011124C22BC7
:101DB000D32BDA68C8CFD82FCC27C46FD06AC3CF53
:101DC000DC2FCC27C06FD06ABECF8C2F8F700E94C3
:101DD000AA0F34E0D695C7953A95E1F7CF709C2FBE
:101DE000EC01D069B0CF972F7330A8F4633098F42A
:101DF00070E023E0929F600D711D1124FB0199E0BA
:101E0000899FE00DF11D1124EE0FFF1FE455FF4FD8
:101E100085919491089580E090E008950E94F30EDA
:101E20000E94FB0D089582389105B1F1B0F4813321
:101E3000910509F475C048F48932910509F469C027
:101E40008A32910509F473C008958533910509F428
:101E500059C08933910501F10895833E9105A9F197
:101E600038F4803E9105F9F0823E910549F10895DC
:101E7000863E9105A9F1873E9105C9F1843E910501
:101E800019F52091A40221FF1FC08091A30284FDB7
:101E900014C087EE90E008952091A3022370A1F072
:101EA00080EE90E008952091A30220FD47C030917C
:101EB000A40230FF09C024FF44C090E080E004C0C9
:101EC0002091A30222FDF7CF08952091A30222FDC5
:101ED0003BC03091A40230FDE3CF24FFF5CFEDCF1E
:101EE0002091A30223FFF0CF24FDE7CFD2CF209192
:101EF000A30223FD2CC03091A40231FFEECF84EE6B
:101F000090E008952091A30225FFDECF89E290E0C2
:101F100008952091A30225FFD7CF85E390E008958F
:101F20002091A30226FFD0CF8AE290E0089520916D
:101F3000A30226FFC9CF81E390E0089589E390E0F2
:101F4000089583EE90E0089582EE90E0089586EE85
:101F500090E008959091A30292FF06C0282F287167
:101F60002830F9F4877F846093FF06C0282F2871FA
:101F70002831F1F4877E84612091A40220FF06C0FD
:101F8000382F38713830D9F4877F816021FF06C03F
:101F9000282F28712831D1F4877E816194FD877EB6
:101FA0000895282F24712430F9F68B7F8860DCCFC8
:101FB000282F2471243101F78B7E8861DDCF382FE3
:101FC0003171313019F78E7F8860E0CF282F217171
:101FD000213121F78E7E8861E1CF80E008950E9453
:101FE000800C08950E94E8102FEF86E791E02150C1
:101FF00080409040E1F700C000000E94E81080E0BF
:102000000E94391080FF04C00E94EF0F0E94231F1E
:1020100008950E94F20F08950E94870C811102C05A
:102020000E94340D0E94920C809355020E949C0CD9
:102030009093A4028093A3020E9409100E94970C1F
:10204000682F70E090E080E00E94E7066091C60192
:102050007091C7018091C8019091C9010E94260723
:10206000089508950E943110089508950E94351032
:102070000895E82FF0E0E855FD4F80810895089518
:1020800080EA8A95F1F7089500C008950E944010F3
:102090000895F894E82FE295EF70F0E031A1282F31
:1020A0002F7081E090E001C0880F2A95EAF7982F01
:1020B0009095932391A392A1892B82A3789408955C
:1020C00086E60E94491086EC0E94491084E30E9433
:1020D000491084E90E94491087E90E94491085E36C
:1020E0000E9449100895B0E0A0E0E9E7F0E10C9407
:1020F000A826EC01D62E062F10E0C80181579E4F6E
:102100007C01FC0180818F3F09F445C0F894E82FE1
:10211000E295EF70F0E091A18F7021E030E001C016
:10212000220F8A95EAF7892F822B81A382A120951D
:10213000282322A378940E944410ECE8F1E04FE8B1
:1021400051E031E0C12C21912F3F51F1A22FA295F6
:10215000AF70B0E090968C9190E02F7002C0959592
:1021600087952A95E2F780FD1BC0832FC82A330F7D
:102170004E175F0741F7F70180818F3F11F00E94F2
:10218000491061E0C11001C060E08D2D0E94461031
:10219000C00FD11FC882CDB7DEB7E8E00C94C426CB
:1021A00080E0E4CF0E94601083E0E8EAF2E0DF0123
:1021B000982F1D929A95E9F7E5EAF2E0DF011D926A
:1021C0008A95E9F783E00E9427110E949C020895F6
:1021D000A3E0B0E0EEEEF0E10C94AD2619821A8295
:1021E0001B8260E0CE0101960E94731061E0CE0177
:1021F00001960E94731062E0CE0101960E94731056
:1022000043E050E0BE016F5F7F4F85EA92E00E949D
:10221000EE2611E0009709F410E0892B49F089813E
:102220009A81AB818093A5029093A602A093A70206
:10223000212F43E068EA72E085EA92E00E942811CB
:102240000E949F02812F2396E3E00C94C9260895F3
:10225000FF920F931F93CF93DF93F82E092F162F22
:10226000D72FC42F222349F081E0809358020E9487
:10227000D81E90935702809356028091580288236B
:10228000A1F080915602909157020E94F01E05978E
:1022900060F0EF2DF02FA12FBD2FCE0FDF2FD11D1E
:1022A000EC17FD0739F410925802CDB7DEB7E5E020
:1022B0000C94C72681918D93F3CF0E94EA200E944F
:1022C000730D0E94F72008950E94FC200E94F20DD9
:1022D0000E94162108950E94711E0E94D0200E9423
:1022E000590D0E945D110E9464110E94690DFBCF7F
:1022F00080915F0280FF0DC06091070170E0660F62
:10230000771F6038710570F56115710569F1862FC9
:10231000089581FF07C06091070184E0689FB001C4
:102320001124EFCF6091070182FD0AC080915E0207
:102330008823A9F02091060160910701821710F00F
:1023400088E0ECCF869FC001112433E0880F991FED
:102350003A95E1F7622F70E00E943126D2CF68E013
:1023600070E0D5CF8FE7089581E0089580915F02F6
:1023700080FF0CC06091030170E0759567957595BD
:1023800067956115710549F1862F089581FF06C093
:102390006091030170E075956795F3CF609103013B
:1023A00082FD0BC090915D029923A1F06091020122
:1023B00080910301961738F0682F70E0603871053E
:1023C00000F38FE70895899FC001112470E00E94F7
:1023D0003126F4CF61E070E0D7CF81E008958D3EE3
:1023E00031F40E94781181958093630208958E3EA6
:1023F00019F40E947811F8CF8F3E31F40E947811C1
:102400008195809362020895803F19F40E947811AB
:10241000F8CF893F29F40E94B61180936402089591
:102420008A3F21F40E94B6118195F7CF8B3F31F49A
:102430000E94B61181958093650208958C3F19F42E
:102440000E94B611F8CF9FE0980F983070F4815F2A
:10245000990B21E030E001C0220F8A95EAF78091C4
:102460006102822B8093610208958D3F31F4809147
:102470005F02816080935F0208958E3F21F4809116
:102480005F028260F7CF8F3FB9F780915F0284606F
:10249000F1CF409162028D3E59F48091630287FF33
:1024A0000DC01092630241110BC010925E0208C071
:1024B0008E3E81F48091630218169CF3442381F0D0
:1024C0008091640290916502892B09F05AC01092A4
:1024D0005D0208958F3E49F447FFF0CF10926202EB
:1024E000809163028111ECCFE0CF803F19F4141684
:1024F000ACF3E4CF90916402893F29F41916F4F605
:1025000010926402DBCF8A3F19F497FFD7CFF8CF40
:10251000909165028B3F29F497FFD0CF109265020E
:10252000CDCF8C3F19F41916CCF3C8CF9FE0980F8C
:10253000983090F4815F990B21E030E0B90102C03E
:10254000660F771F8A95E2F7CB0180959091610223
:10255000892380936102B2CF8D3F31F480915F0275
:102560008E7F80935F02AACF8E3F21F480915F021D
:102570008D7FF7CF8F3F09F0A1CF80915F028B7FD6
:10258000F0CF08950E94D81E9C0190916202809124
:102590006302982B21F030935C0220935B029091B0
:1025A000640280916502982B21F030935A022093A7
:1025B000590280E692E00E942D1D0895A6E0B0E049
:1025C000E4EEF2E10C94AD2686E0E0E6F2E0DE0116
:1025D000119601900D928A95E1F710926202109285
:1025E000630210926402109265028B819C81892B98
:1025F00081F080915B0290915C020E94F01EAC0120
:1026000090915E02992391F180910801841715063B
:10261000D0F18D819E81892B91F08091590290910A
:102620005A020E94F01EAC0190915D02992309F4B8
:102630006BC0809104018417150608F473C0BE01B5
:102640006F5F7F4F80E692E00E94291E81110E94F9
:10265000C21286E0FE013196A0E6B2E001900D9232
:102660008A95E1F72696E3E00C94C92620910901AA
:102670008AE0289F900111242417350750F69F5FA8
:1026800090935E0202C09F3FD1F71B81112359F046
:102690000E9478119FEF11160CF491E0899F802D14
:1026A0001124809362021C81112359F00E94781139
:1026B0009FEF11160CF491E0899F802D11248093D7
:1026C000630230916202332309F4A3CF20916302A5
:1026D000222309F49ECF45EB3403C0011124992332
:1026E00059F09093620245EB2403900111243323A7
:1026F00039F0309363028DCF81E080936202F3CF93
:1027000081E08093630285CF209105018AE0289FB4
:10271000900111242417350708F091CF9F5F909303
:102720005D0202C09F3FD1F71D81112359F00E9425
:10273000B6119FEF11160CF491E0899F802D1124A2
:10274000809364021E81112359F00E94B6119FEFFD
:1027500011160CF491E0899F802D1124809365025D
:1027600030916402332309F46ACF20916502222359
:1027700009F465CF45EB3403C0011124992359F0C6
:102780009093640245EB240390011124332339F024
:102790003093650254CF81E080936402F3CF81E0EF
:1027A000809365024CCF86E0E0E6F2E0DF011D9207
:1027B0008A95E9F710925E0210925D0210925F0214
:1027C0000895EF92FF920F931F93CF93DF93EB0146
:1027D000E82FD1110EC0442321F0F0E0EB52FE4F60
:1027E000E4916E2F7E2F8E2FCDB7DEB7E6E00C94EE
:1027F000C6260D2F10E0282F30E0442329F02B525D
:102800003E4FF901249130E0F6E0CF9FC001112442
:10281000EFEFF0E0BF010E941D26AB018C2F90E08E
:10282000880F991FA5E5A49FB001A59F700D1124E5
:10283000861B970B982F990F980FBF01601B710B88
:10284000629FD001639FB00D729FB00D11248B2F3A
:102850009D9FB0011124672F7727EF01C61BD70B6F
:10286000BE01629FE001639FD00D729FD00D1124C5
:102870007F01E91AF108E09EB001E19E700DF09E23
:10288000700D1124672F7727E61BF70BE29F80015D
:10289000E39F100DF29F100D1124E12F722F423093
:1028A000510599F048F44115510569F04130510541
:1028B00081F0EB2F8D2F07C04430510569F080F077
:1028C00046305105B1F76E2F8FCFE22F7B2F812F2E
:1028D000FACFE22F7D2FF7CFEB2F822F712FF3CF7F
:1028E0007B2F822FED2FEFCF41E00E94E11308955F
:1028F00008950E9474140895CF93DF93762FE90111
:10290000682F842F0E947914798368838A83DF91EA
:10291000CF9108958091AB02982F9E7F29F481700A
:1029200082608093AB0208958A34E8F381708864F2
:10293000F8CF88E090E00E9403270895CF92DF92BD
:10294000EF92FF926B017C010E948A14B701A601ED
:1029500088E090E00E942127FF90EF90DF90CF90D9
:102960000895EBEAF2E083E0808311828FEF8283A7
:102970008383148260817181828193810E949E147D
:1029800008958091AB0280FF02C08695089580E093
:1029900008959091AF02933018F49F5F9093AF0227
:1029A000882351F06091AB027091AC028091AD022E
:1029B0009091AE020E949E14089581E00E94C91475
:1029C00008959091AF02992319F091509093AF021E
:1029D000882351F06091AB027091AC028091AD02FE
:1029E0009091AE020E949E14089581E00E94E1142D
:1029F000089570E00E94B31A089560910E018091CD
:102A0000AB0280FF0BC080910D0123E0829FC001CB
:102A1000112480559D4F0E94F914089580910F0153
:102A20009091100123E0829FF0011124E055FD4FA9
:102A3000891748F71182108212828F5F3396F8CF80
:102A40009091AB0290FF0EC090910F012091100168
:102A500033E0939FF0011124E055FD4F921718F0D9
:102A60000E94FD1408958183608342839F5F3396A3
:102A7000F5CFA3E0B0E0EFE3F5E10C94AE26909142
:102A8000AB0290FF0AC09E012F5F3F4F0E947C1453
:102A90004B8169818A810E9420152396E2E00C9483
:102AA000CA26CF93DF93EC01EC81F0E0E053FF4FB7
:102AB0004491EBEAF2E0628181810E9439158C81B8
:102AC0008F5F8C83DF91CF910895CF93DF93EC01DB
:102AD000EBEAF2E0438162818C810E9439158C819E
:102AE0008F5F8C83DF91CF910895A3E0B0E0EBE797
:102AF000F5E10C94AC268C018091660281110AC02C
:102B00009E012F5F3F4F4FEF6FEF0E947C148A8131
:102B100080936602F8016481613069F080916602F9
:102B200040E0662361F040E0623011F440916602BB
:102B300080E060E004C06091660240E080E00E94B6
:102B40002015F801848190E0019663E070E00E9416
:102B5000312684832396E4E00C94C826A3E0B0E0F9
:102B6000E4EBF5E10C94A726082FD62EE42EC22E16
:102B70009091AB0290FF29C0E92FE695AE2FB0E00F
:102B8000AE56BE4F8C91809370029E7F923009F5B5
:102B90009E012F5F3F4F802F0E947C144B816981E3
:102BA0008A810E9420150093AC02D092AD02E0927F
:102BB000AE02CC2051F06091AB027091AC028091DA
:102BC000AD029091AE020E949E142396E9E00C940F
:102BD000C326823019F4E090AE02E5CF863019F4B6
:102BE0000091AC02E0CF8930D9F38931E1F6E951A7
:102BF0006E2F6170B62EE695F0E0E053FE4F149113
:102C0000F12C60911101F61618F00E94FD14CBCF43
:102C1000F19EC001112470E00E941D26802FB1108A
:102C200014C0860F20910F01622F6F0D7727771F39
:102C30009B01220F331F260F371F20553D4F4E2D6E
:102C40006D2D0E947C14F394DCCF861BEBCFEBEA56
:102C5000F2E09181282F438162818AE0890F0E94EE
:102C6000AE15089581E00E9427160895EBEAF2E080
:102C70009181282F4381628186EF890F0E94AE15D2
:102C8000089581E00E9436160895EBEAF2E0628131
:102C900021E1620F08F46FEF282F438181810E94A8
:102CA000AE15089581E00E9445160895EBEAF2E022
:102CB000628121E1621B08F460E0282F4381818159
:102CC0000E94AE15089581E00E9456160895EBEA21
:102CD000F2E0438121E1420F08F44FEF282F628197
:102CE00081810E94AE15089581E00E9467160895C3
:102CF000EBEAF2E0438121E1421B08F440E0282F97
:102D0000628181810E94AE15089581E00E9478164B
:102D1000089520E00E94AE150895EF92FF921F9350
:102D2000CF93DF93EC0110E0EE24EA94F12C609154
:102D30001101161770F00E94FD149A818C8190FF8A
:102D400027C08F5F8C83DF91CF911F91FF90EF9011
:102D5000089520910F01422F410F5527551FCA0199
:102D60009A01220F331F280F391F20553D4F70E065
:102D7000C7010E943126962F8C814091AE0260914E
:102D8000AD02199F800D11240E947C141F5FCFCFCC
:102D90008150D8CFB0E0A0E0E0EDF6E10C94A6269B
:102DA000FC0182810FEF80FF01E010E049E0A42EDA
:102DB00080911101181798F00E94FD14809168020B
:102DC000013009F04FC0811102C080911101815082
:102DD00080936802CDB7DEB7EAE00C94C226C091BA
:102DE0000F01C12ED12CCC0DDD2DD11DCE01880FB0
:102DF000991FC80FD91FC055DD4F198218821A823A
:102E000034E0E32EF12CB12C809168028B0D8A30D6
:102E10001CF16A2D0E940F26892F082E000C990B99
:102E2000C816D90691F48091AE028E9DA0018F9DA7
:102E3000500D112455954795559547959E016091E4
:102E4000AD028091AC020E947C14B00EF1E0EF1A4A
:102E5000F108D1F61F5FACCF87FFDFCF9091110152
:102E6000890FDBCF90E001966091110170E00E9424
:102E70003126AECF0F931F93CF93DF9380910F0135
:102E80009091100123E0829FF0011124E055FD4F45
:102E9000891740F1C0E0D3E060911101C61740F1FD
:102EA0000E94FD1420910B0180916702820F809394
:102EB000670290910C01920F90930C01191654F433
:102EC000082E000C990B409111014150550B8417AD
:102ED00095071CF0219520930B01DF91CF911F9155
:102EE0000F9108951182108212828F5F3396D0CF96
:102EF0000C2F10E070E0C8010E94312620910F01D4
:102F0000820F482F50E020916702022E000C330BF5
:102F100002171307BCF020910C01022E000C330B9A
:102F2000201731077CF08D9F9001112420553D4FD3
:102F30004091AE026091AD028091AC020E947C147F
:102F4000CF5FAACFFA01EE0FFF1FE40FF51FE05588
:102F5000FD4F118210821282F3CFB0E0A0E0E3EBCC
:102F6000F7E10C94A426EC014C81042F10E09801A9
:102F7000D8010E9475269B01AC010E948B264B0153
:102F80005C01E0E2F0E0E01BF10BA5E5B0E0AC0194
:102F90009B010E948B266B017C019F01DF010E9437
:102FA0006D269B01AC010E9496269B01AC01280D69
:102FB000391D4A1D5B1DC701B6010E944526F22E30
:102FC000822F90E039E23F1520F143E0249F9001E9
:102FD000112435952795122F109500E085E5E82EF0
:102FE000EF1880911101081718F10E94FD149C81BF
:102FF00081E0992319F0903219F48FEF80930A0140
:1030000080910A01890F8C83CDB7DEB7ECE00C9478
:10301000C02625E530E0B901681B790B9B01220F22
:10302000331F260F371F37FFD4CF2F5F3F4FD1CF2E
:103030008E2D01FD8F2D20910F01622F600F7727BC
:10304000771F9B01220F331F260F371F20553D4F3F
:10305000412F6091AD020E947C140F5FC2CF0F938D
:103060001F93CF93DF93EC0110E000E090911101EA
:103070009017110609F06CF40E94FD148C8190E009
:103080000196817099278C83DF91CF911F910F91C9
:10309000089520910F01A801420F511D9A01220F9E
:1030A000331F240F351F20553D4F4C816091AD02D9
:1030B0008091AC0296959017110651F04CF0442384
:1030C00049F04091AE020E947C140F5F1F4FCECF9B
:1030D0004423B9F340E0F7CFEBEAF2E080818E7F42
:1030E000808360817181828193810E949E141092FD
:1030F00071022FEF80E792E0215080409040E1F78D
:1031000000C000000E94FD1408956091AB02669516
:1031100070E04BE050E082E191E00E94E126892BD3
:1031200019F481E0809371020E94D81E90936A0284
:103130008093690208959091AB0290FF2BC091702B
:10314000811129C092609093AB02662351F0609187
:10315000AB027091AC028091AD029091AE020E94E0
:103160009E146091AB02669570E04BE050E082E106
:1031700091E00E94E126892BA9F01092710281E072
:1031800080936C024091AE026091AD028091AC02DE
:103190000E9489160895853210F09864D4CF880F64
:1031A000982BD1CF0E948518EACF682F9091AB025F
:1031B000969581E0890F853208F081E00E949B1886
:1031C000089581E00E94D5180895682F9091AB0270
:1031D00096958FEF890F09F484E20E949B18089559
:1031E00081E00E94E518089561E00E949B1808950F
:1031F000EBEAF2E080818160808386950E94F4187A
:1032000008958091AB0280FF03C00E946C1808955E
:103210000E94F818089560E00E949B18089580911C
:103220006F0281112EC00E94870C811104C00E9480
:10323000340D0E94B1140E9499146093AB027093F4
:10324000AC028093AD029093AE026E7F61F40E9457
:10325000B1140E9499146093AB027093AC028093F6
:10326000AD029093AE020E948A1410927102809176
:10327000AB0280FF03C086950E940B1981E080930A
:103280006F0208950F931F93CF93DF938091710284
:103290008823B9F180917002E091AB02E695E81BBA
:1032A000E0936B02823091F5F0E0E453FF4FE4913C
:1032B000CE2FD0E001E515E180916C02882361F00A
:1032C00010926C020E94D81E90936A028093690249
:1032D00010926E0210926D020E94D81EE091690257
:1032E000F0916A028E1B9F0B8F3F9F4750F4EC0FAB
:1032F000FD1FF0936A02E093690289E692E0F8010B
:103300000995DF91CF911F910F910895863049F46F
:10331000F0E0E753FF4FE491CE2FD0E005E615E152
:10332000CBCF893051F4E695F0E0EA53FF4FE491BA
:10333000CE2FD0E00DE816E1BFCF8F3051F4E695E7
:10334000F0E0ED53FF4FE491CE2FD0E00AEC16E110
:10335000B3CF853149F4F0E0E054FF4FE491CE2F34
:10336000D0E00AE317E1A8CFC8E2D0E00DEA17E108
:10337000883109F4A1CF833239F4EEEBF0E0C59146
:10338000D49105E715E198CFC4EFD1E00FE218E141
:10339000843209F491CFC0EDD7E008E714E18CCF77
:1033A000FA01811101C0FB0109950895CF93DF93C4
:1033B000C82FD62F0E94C1148C1748F00E94C11448
:1033C0008D1728F40E94E118DF91CF9108958C2F7A
:1033D0000E94F418F9CF1F93CF93DF93EC01FB0108
:1033E000128111117EC00E94990B8272CD3CFCE5C6
:1033F000DF0709F49CC008F041C0C73CECE5DE07DC
:1034000009F481C0D8F4C43C9CE5D90709F471C023
:1034100030F4C33CDC4509F469C011E062C0C53C2E
:103420009CE5D90709F46AC041E456E162E376E11C
:10343000C63CDC4591F70E94D01953C0CA3CFCE55C
:10344000DF0709F46AC068F4C83CECE5DE0709F45C
:103450005FC042E556E163E676E1C93CDC4559F3DD
:10346000DCCFCB3C9CE5D90709F45CC045EF54E1C7
:103470006DED74E1CC3CDC45F1F2CFCFC23DFCE513
:10348000DF0709F465C098F4CF3C9CE5D90709F43F
:1034900057C008F451C0C03DFCE5DF0709F455C032
:1034A000C13DDC4509F0B9CF6EE089E04BC0C53DB8
:1034B0009CE5D90709F452C058F4C33DFCE5DF0789
:1034C00009F449C0C43DDC4509F0A7CF88E135C007
:1034D000C63D9CE5D90709F444C0CE35DD4509F069
:1034E0009CCF812FDF91CF911F9108950E940119E8
:1034F000F8CF40EF58E161EE78E19DCF41EE58E121
:1035000060EF78E198CF42E356E161E476E193CF52
:1035100043E656E162E576E18ECF45E856E164E7A1
:1035200076E189CF44E756E165E876E184CF4DED59
:1035300054E165EF74E17FCF81E00E94F418D1CFB0
:1035400065E082E00E94D619CCCF68E086E0FACF31
:1035500064E18FE0F7CF67E185E1F4CF62E289E1D2
:10356000F1CF83E2EACF539A4BB1477F5BB158600A
:10357000EFB7F8949B01220F331F260F371F280F38
:10358000391F2817390741F4EFBF8FE594E0019701
:10359000F1F700C000000895DC016D91CD0178E0E5
:1035A0005BB9000000C067FF4BB9660F000000C0A8
:1035B00000C000C04BB900C07A9591F7E2CFCF931D
:1035C000DF93EC01FB018281882309F433C1C4300D
:1035D000FDE5DF07C0F5CB3F9CE5D90730F49E0140
:1035E00022503C4524313105B0F50E949C0C90934B
:1035F000A4028093A302C1318CE5D80709F4EEC080
:1036000008F069C0C930ECE5DE0709F4D5C0C8F59B
:10361000C5308CE5D80709F4C7C000F5C330ECE528
:10362000DE0709F4B9C008F0BBC0C230DC4509F4BC
:10363000ADC08091A3029091A4020E94AA0C0E94A6
:10364000990680E008C0C236EDE5DE0771F2C63AA1
:10365000FDE5DF0751F2DF91CF9108958091A3023C
:103660008062C7309CE5D90709F493C08091A3021A
:103670008061C830DC4508F48CC08091A30280646E
:1036800088C08091A3028B7FCD30FCE5DF0709F471
:1036900080C098F48091A3028E7FCB309CE5D9073F
:1036A00009F477C08091A3028C60CC30DC4508F42B
:1036B00070C08091A3028D7F6CC08091A3028F7E29
:1036C000CF30FCE5DF0709F464C008F47BC08091CB
:1036D000A3028F7D5EC0CE3F9CE5D90709F47AC076
:1036E00050F5C531FCE5DF0709F486C098F48091F8
:1036F000A302837FC3319CE5D90709F44AC008F4CB
:1037000071C00E9499069091A302892F97FB87F9B7
:1037100080583FC0CC3FFCE5DF0709F449C008F002
:1037200055C08091A4028160CB3FDC4509F081CF78
:103730008093A4027ECFC230EDE5DE0709F468C0B5
:10374000A8F4C1158DE5D80709F452C08091A402F0
:103750008360C130DD4560F38091A402982F90957D
:1037600091708E7F892B90FB81F9E2CFC236EDE517
:10377000DE0709F451C0C63AFDE5DF0709F453C07E
:10378000C330DD4509F055CF80E043C08091A302EE
:1037900081608093A3024DCF8091A3028260F9CF14
:1037A0008091A3028460F5CF8091A3028860F1CF5D
:1037B0008091A4028260BCCF0E9499068091A302EE
:1037C0008068E7CF8091A302877FE3CF8091A40236
:1037D0008E7FAECF8091A4028D7FAACF8091A3026D
:1037E0008F7BD7CF0E9499068091A3028F77D1CF8C
:1037F0008091A4028C7F9CCF8091A30282FB9927A9
:1038000090F921E0922790FB82F990FB83F9C1CFD8
:1038100081E00E94370D0DCF9091A302892F8F7EFA
:1038200094FF8061B6CF9091A302892F8E7F90FF85
:103830008160AFCF81E00FCFCF93DF93EB01863173
:103840009C4511F50E94990B9A81992399F08A7AE7
:1038500091E009F490E090937202811109C089E22D
:103860000E94710B0E94DA0B80E0DF91CF910895E6
:1038700085E3F6CF80917202811104C089E20E9433
:10388000790BF0CF85E3FBCF81E0EFCF0F931F9350
:10389000CF93DF93C42FD22FFC0182818823C9F0FC
:1038A000409375020E94D81E909374028093730215
:1038B00080E28C0F883040F4C77081E001C0880F2F
:1038C000CA95EAF70E942004DF91CF911F910F91D2
:1038D000089510917502141332C080917302909173
:1038E00074020E94F01E883C910548F5C0E2CD0F9D
:1038F0001D17B9F080E2810F883040F4177081E025
:1039000001C0880F1A95EAF70E942704C83048F4CE
:1039100081E09D2F977001C0880F9A95EAF70E9469
:103920002004802F0E941704C83070F6D77081E001
:1039300001C0880FDA95EAF70E942704C5CF80E21C
:103940008C0F883008F6C77081E001C0880FCA95D7
:10395000EAF7F2CF0F939C01CB01243F4CE53407EB
:1039600059F1A8F4293DFCE53F0701F12A3D4CE55A
:103970003407D1F1283D3C4591F406E221EE41EEB9
:1039800068ED7CE50E94461C80E00F910895263F7B
:10399000FCE53F07E9F0B0F0273F3C45F9F0FC01BA
:1039A0008281882339F110927502EFCF07E225EE6C
:1039B00045EE69ED7CE5E6CF06E221EE40EE64EFF0
:1039C0007CE5E0CF07E225EE44EE65EF7CE5DACF5B
:1039D00006E221EE42EE66EF7CE5D4CF07E225EE6B
:1039E00046EE67EF7CE5CECF08E221E045EE6AEDDA
:1039F0007CE5C8CF81E0C9CF9093B9018093B8012D
:103A0000089590937B0280937A020895E0917A0260
:103A1000F0917B02309729F00190F081E02D09951B
:103A2000089580E00895E0917A02F0917B0230974A
:103A300099F020912901222359F02091A30227FF18
:103A400007C0DC012C9111962C93119726E02C9342
:103A50000280F381E02D09950895E0917A02F091BA
:103A60007B02309739F022E0DC012C930480F58151
:103A7000E02D099508952091780230917902281758
:103A8000390771F09093790280937802E0917A027D
:103A9000F0917B02309721F00680F781E02D0995A7
:103AA000089520917602309177022817390771F036
:103AB0009093770280937602E0917A02F0917B02F4
:103AC000309721F00084F185E02D09950895FC01DF
:103AD000329680912901882321F08091A3029EE1F2
:103AE00087FF96E080E0915008F408952191222309
:103AF000D1F38F5FF8CF662301F1209129012223B2
:103B0000F1F02091A30227FF1AC0462F4695469553
:103B100046954E3190F4677021E030E002C0220FEC
:103B2000331F6A95E2F7840F911DFC01828190E0BA
:103B30002823392381E0232B69F480E00895FC01D8
:103B4000329608962191261721F0E817F907D1F748
:103B5000F4CF81E008959C01FC0132969FEF80E054
:103B60004191461751F09F3F19F4411101C0982F20
:103B70008F5F8630A9F79F3F09F40895290F311D03
:103B800097FD3A95F90162830895FC0132960896F3
:103B90002191261303C0DF0111971C92E817F90742
:103BA000B9F70895E62FE695E695E695EE3168F4C7
:103BB000E80FF92FF11D677021E030E001C0220FFE
:103BC0006A95EAF78281822B82830895E62FE69533
:103BD000E695E695EE3170F4E80FF92FF11D677068
:103BE00021E030E001C0220F6A95EAF7209582813A
:103BF00028232283089520912901222339F020913E
:103C0000A30227FF03C00E94D21D08950E94AB1D8E
:103C1000089520912901222339F02091A30227FF42
:103C200003C00E94E61D08950E94C51D0895FC0171
:103C3000329680912901882351F08091A30287FF59
:103C400006C08EE1DF011D928A95E9F7089586E0AE
:103C5000F9CF46E050E00E94EE2621E0892B09F4DE
:103C600020E0822F089508950E94331E0895811147
:103C700006C081E080937C020E94341E089582E099
:103C8000F9CF83E080937C020E94341E08950E9445
:103C9000371E089581E080937C020E94341E0895AF
:103CA0000E944A1E0895089508950E94541E089582
:103CB000089508950E94531E0895CF930E94581EA0
:103CC0000E94E8100E94591EC0E08C2F0E943910FB
:103CD000811105C0CF5FC330C1F7CF91089581E056
:103CE000FCCF85B7806885BF85B7806885BF08959C
:103CF0001F921FB61F9211248F939F93AF93BF9370
:103D000080917D02811113C08091CB029091CC02F1
:103D1000A091CD02B091CE024196A11DB11D80931C
:103D2000CB029093CC02A093CD02B093CE02BF9170
:103D3000AF919F918F911F901FBE1F9018958091FA
:103D4000D302843031F10E94150310927D0288E184
:103D500090E020E40FB6F894A895809360000FBE21
:103D60002093600083B7817F846083BF83B78160C5
:103D700083BF7894889583B78E7F83BF0FB6F894FE
:103D8000A895809160008861809360001092600027
:103D90000FBE08950E9499060E941A03089582E0BA
:103DA00084BD93E095BD9AEF97BD80936E00089512
:103DB0002FB7F8948091CB029091CC02A091CD02C4
:103DC000B091CE022FBF08952FB7F8946091CB0227
:103DD0007091CC028091CD029091CE022FBF0895B8
:103DE0009C014FB7F8948091CB029091CC02A091A6
:103DF000CD02B091CE024FBF821B930B08957894F1
:103E00001F921FB61F9211248F939F93AF93BF935E
:103E10008091CB029091CC02A091CD02B091CE02C4
:103E20000196A11DB11D8093CB029093CC02A0936B
:103E3000CD02B093CE02BF91AF919F918F911F9011
:103E40001FBE1F90189587E797E79093010880930E
:103E5000000888E19AE00FB6F894A8958093600076
:103E60000FBE90936000FFCF88E19AE00FB6F89400
:103E7000A895809360000FBE90936000FFCF809163
:103E8000A102089508959C0182E08093E9009FEFCC
:103E90008091E800915085FD06C085ED8A95F1F787
:103EA00000009111F5CF8091E80085FF0CC050E033
:103EB00040E066E070E0C9010E9488218091E8003E
:103EC0008E778093E8000895CF93DF93EC01809183
:103ED00029018823B1F18091A30287FF32C060E2FB
:103EE00082E08093E9008FEF9091E800815095FD8A
:103EF00006C095ED9A95F1F700008111F5CF8091FC
:103F0000E80085FF1BC08091290170E050E040E08F
:103F1000811104C050E040E068E070E0CE010E94F2
:103F200088218091E8008E778093E80080E2FE018E
:103F3000A1E8B2E001900D928A95E1F7DF91CF916F
:103F4000089568E081E0CDCF80937E027093800277
:103F500060937F028091D302843001F582E08093E8
:103F6000E9008FEF9091E800815095FD06C095ED36
:103F70009A95F1F700008111F5CF8091E80085FF57
:103F80000DC050E040E063E070E08EE792E00E94F8
:103F900088218091E8008E778093E8000895BC0125
:103FA00084E00E94A41F0895BC0183E00E94A41F26
:103FB00008958091D202811109C00E9418230E94A5
:103FC00075238091E20084608093E200089510924E
:103FD000D20208950E944A1E08956091CF0281E0A6
:103FE000611101C080E00E94411E08959091D302AA
:103FF00081E0943009F080E06091CF020E94471E7A
:10400000089542E061EC81E00E94942242E261EC7A
:1040100082E00E9494229091D30281E0943009F0D2
:1040200080E06091CF020E94371E08958091D502F2
:10403000833009F461C030F48130D1F1823009F469
:104040009EC008958A3009F48AC08B3009F46FC08D
:10405000893009F050C08091D402813209F04BC000
:104060008091D8029091D902029708F044C08091C3
:10407000E800877F8093E8008091E80082FF37C0E6
:104080009091F3008091F200029731F48091F10059
:10409000813011F0863021F48091F1008093A102EB
:1040A0008091E8008B778093E8000E94C82223C0AB
:1040B0008091D402813AF9F48091E800877F80935F
:1040C000E8008091D8029091D902892B61F460E2D6
:1040D00081E892E070E00E94D7218091E8008B7720
:1040E0008093E800089560E090E080E0F3CF809155
:1040F000D3028111C1CF08958091D402813AD9F7BA
:104100008091D8029091D902892BA9F78091E8007B
:10411000877F8093E8008091E80080FFFCCF80914A
:1041200029018093F1008091E8008E77BCCF8091C7
:10413000D402813201F78091D8029091D902892B63
:10414000D1F68091E800877F8093E8000E94C82222
:104150008091D602809329010E949906089580914A
:10416000D402813241F68091E800877F8093E80095
:104170000E94C8228091D7028093A2020895809164
:10418000D402813A09F0B7CF8091E800877F80930D
:10419000E8008091E80080FFFCCF8091A202C1CFAF
:1041A00084B7877F84BF0FB6F894A895809160008C
:1041B000886180936000109260000FBE80E890E0FC
:1041C0000FB6F89480936100909361000FBE0E9437
:1041D000501E08950E9418230E947523E2EEF0E01D
:1041E00080818460808378940E94F42508958DE115
:1041F00091E00E94011D08958091D302853031F431
:104200008091D302853019F00E94CA1E08950E9441
:104210009F1E8091D102882399F30E945D1E8823FE
:1042200079F30E9472210E949906EACF08950E94B4
:104230001A210895292F33272330310519F168F405
:104240002130310509F444C02230310509F445C05C
:1042500090E080E030E020E025C02132310549F1D6
:1042600022323105A9F780E490E02CE134E06115B9
:104270007105C1F086EB90E026E633E06130710510
:1042800089F0E6CF99278130910581F0009729F0D8
:104290000297F1F6E5EDF2E002C0E5E1F3E084918A
:1042A00090E09F01FA01318320830895EBEFF2E063
:1042B000F6CF89E090E02BE233E06115710591F3D0
:1042C00089E090E024E433E06130710559F3C0CF18
:1042D00082E190E024E533E0E5CF8BE390E029E153
:1042E00033E0E0CF80E189BD82E189BD09B400FE01
:1042F000FDCF8091D8008F7D8093D8008091E00021
:1043000082608093E0008091E00081FDFCCF089501
:10431000AF92BF92CF92DF92FF920F931F93CF93F2
:10432000DF936C01EB018A010E94E722F82E8111D4
:1043300023C00115110539F0F80180819181C81B56
:10434000D90BC80ED91EB12CA12C2097A9F08091B1
:10435000E80085FD22C08091E8008E778093E80018
:1043600001151105A1F0F80180819181A80EB91EF7
:10437000B182A08285E0F82E8F2DDF91CF911F9121
:104380000F91FF90DF90CF90BF90AF9008950E9463
:10439000E7228823D1F2F82EEFCFF60181916F0149
:1043A0008093F1002197FFEFAF1ABF0ACECFFC0137
:1043B0008091DA029091DB0286179707A0F06115D1
:1043C000710529F49091E8009E779093E80090E0C1
:1043D0006115710551F4911108C08091E80082FFC8
:1043E00034C080E00895BC01F2CF8091D3028823CD
:1043F000C1F18530C1F18091E80083FD30C080912A
:10440000E80082FDEACF8091E80080FFE1CF809153
:10441000F3002091F200382F6115710519F0283052
:10442000310558F091E02830310509F090E02091F5
:10443000E8002E772093E800CBCF81918093F100A4
:10444000615071092F5F3F4FE7CF8091D3028823DE
:1044500041F0853041F08091E80083FFBECF81E0DC
:10446000089582E0089583E00895FC018091DA02C6
:104470009091DB0286179707A0F06115710529F46A
:104480008091E8008E778093E80090E061157105D7
:1044900051F4911108C08091E80082FF35C080E09E
:1044A0000895BC01F2CF8091D3028823C9F18530F1
:1044B000C9F18091E80083FD31C08091E80082FD60
:1044C000EACF8091E80080FFE1CF8091F300209156
:1044D000F200382F6115710519F02830310558F0B8
:1044E00091E02830310509F090E08091E8008E7766
:1044F0008093E800CBCF84918093F1003196615096
:1045000071092F5F3F4FE6CF8091D302882341F09E
:10451000853041F08091E80083FFBDCF81E00895B0
:1045200082E0089583E00895982F973028F08F70E7
:104530008093E90081E008959093E900242F762F7D
:1045400050E0981731F07091EC002091ED005091FF
:10455000F00021FD02C09F5FE8CF3091EB003E7F6D
:104560003093EB003091ED003D7F3093ED003091C2
:10457000EB0031603093EB007093EC002093ED0082
:104580005093F0002091EE0027FDE5CF80E00895E4
:104590008091D40287FF13C08091E80082FF06C09B
:1045A0008091E8008B778093E80004C08091D3026B
:1045B0008111F2CF08958091D3028823D9F380919D
:1045C000E80080FFF8CF8091E8008E77ECCF209153
:1045D000E4003091E50095E6A9012091EC00822FDE
:1045E000817020FF06C08091E80080FF06C080E057
:1045F00008952091E80022FD1AC08091D3028823FB
:1046000089F0853089F08091EB0085FD0FC0209105
:10461000E4003091E50042175307F9F29150E1F6BA
:1046200084E0089582E0089583E0089581E008958C
:104630000E9487230E948F23E0EEF0E0808181605A
:104640008083E8EDF0E080818F77808319BCA7ED4F
:10465000B0E08C918E7F8C9380818F7E80831092CE
:10466000D20208950F931F93CF93DF930E94872365
:104670000E948F23C8EDD0E088818F77888388815E
:104680008068888388818F7D888319BC1092D302CB
:104690001092CF021092D1021092D00200EE10E0E0
:1046A000F80180818B7F808388818160888342E0EC
:1046B00060E080E00E949422E1EEF0E080818E7F55
:1046C0008083E2EEF0E08081816080838081886079
:1046D0008083F80180818E7F8083888180618883D8
:1046E000DF91CF911F910F910895E8EDF0E0808167
:1046F0008F7E8083E7EDF0E080818160808384E0BD
:1047000082BF81E08093D2020E9432230895E8EDB7
:10471000F0E080818E7F80831092E20008951092F5
:10472000DA001092E10008951F920F920FB60F92D7
:1047300011242F933F934F935F936F937F938F93A6
:104740009F93AF93BF93EF93FF938091E10082FF1C
:104750000BC08091E20082FF07C08091E1008B7F57
:104760008093E1000E94F3258091DA0080FF19C058
:104770008091D80080FF15C08091DA008E7F8093F1
:10478000DA008091D90080FF96C080E189BD82E186
:1047900089BD09B400FEFDCF81E08093D3020E9461
:1047A000D91F8091E10080FF19C08091E20080FF55
:1047B00015C08091E2008E7F8093E2008091E2003C
:1047C00080618093E2008091D80080628093D8005D
:1047D00019BC85E08093D3020E94ED1F8091E10017
:1047E00084FF2BC08091E20084FF27C080E189BD57
:1047F00082E189BD89B5982F917080FFFBCF8091B0
:10480000D8008F7D8093D8008091E1008F7E8093C7
:10481000E1008091E2008F7E8093E2008091E200CF
:1048200081608093E2008091CF02882309F449C01F
:1048300084E08093D3020E94F61F8091E10083FF01
:1048400029C08091E20083FF25C08091E100877F2D
:104850008093E10082E08093D3021092CF02809196
:10486000E1008E7F8093E1008091E2008E7F809353
:10487000E2008091E20080618093E20042E060E02B
:1048800080E00E9494228091F00088608093F00084
:104890000E94EA1FFF91EF91BF91AF919F918F917D
:1048A0007F916F915F914F913F912F910F900FBE2C
:1048B0000F901F90189519BC1092D3020E94E71F09
:1048C00070CF8091E30087FD93E09093D302B3CF44
:1048D0001F920F920FB60F9211242F933F934F9375
:1048E0005F936F937F938F939F93AF93BF93CF9378
:1048F000DF93EF93FF93D091E900DF708091EC009C
:10490000C82FC17080FDC0E81092E9008091F000CE
:10491000877F8093F00078940E94AC241092E90085
:104920008091F00088608093F000CD2BCF70C09311
:10493000E900FF91EF91DF91CF91BF91AF919F91EE
:104940008F917F916F915F914F913F912F910F9038
:104950000FBE0F901F901895AAE2B0E0E2EBF4E2D0
:104960000C94AD2684ED92E02091F100FC0121939E
:10497000CF01F2E08C3D9F07B9F70E94162080918D
:10498000E80083FF1EC18091D4029091D5029A3035
:1049900008F017C1E92FF0E0EF5AF84D0C946726A4
:1049A000803899F0823809F00CC18091D8028F705C
:1049B000873008F006C18093E9008091EB0085FB09
:1049C000882780F91092E90006C08091D00290916A
:1049D000D102911182609091E800977F9093E80056
:1049E0008093F1001092F1008091E8008E77E5C08D
:1049F000882309F4D3C0823009F0E3C08091D60245
:104A00008111D6C08091D8028F702FEF280F2630E9
:104A100008F0D7C08093E9002091EB0020FFC8C0C8
:104A2000933031F48091EB0080628093EB00C0C042
:104A30009091EB0090619093EB0021E030E001C099
:104A4000220F8A95EAF72093EA001092EA008091FB
:104A5000EB008860EACF8111B4C01091D6021F77B5
:104A60008091E3008078812B8093E3008091E800BF
:104A7000877F8093E8000E94C8228091E80080FF31
:104A8000FCCF8091E30080688093E30082E0111105
:104A900083E08093D30295C08058823008F091C0A3
:104AA0008091D6029091D7028C3D23E09207A1F528
:104AB00083E08A838AE289834FB7F894DE011396F4
:104AC00020E03EE051E2E32FF0E050935700E49104
:104AD00020FF03C0E295EF703F5FEF708E2F90E0F4
:104AE000EA30C0F0C7968D939D932F5F243159F71C
:104AF0004FBF8091E800877F8093E8006AE270E012
:104B0000CE0101960E94D7218091E8008B77809397
:104B1000E80057C0C096E7CF6091D8027091D902E3
:104B2000AE014F5F5F4F0E941721BC01892B09F432
:104B300048C09091E800977F9093E80089819A811E
:104B40000E943522E1CF8038E1F58091E800877F2F
:104B50008093E8008091CF028093F10045CF8111CE
:104B600030C09091D602923060F58091E800877F46
:104B70008093E8009093CF020E94C8228091CF02D8
:104B8000882311F084E005C08091E30087FDFACF0F
:104B900081E08093D3020E94012013C08091D6024D
:104BA000813079F481E0933009F080E08093D10284
:104BB0001092E9008091E800877F8093E8000E94CE
:104BC000C8228091E80083FF0AC08091E800877FB7
:104BD0008093E8008091EB0080628093EB00AA96BE
:104BE000E3E00C94C9260895CF938091D3028823E3
:104BF000A1F0C091E900CF709091EC00892F8170F5
:104C000090FD80E8C82B1092E9008091E80083FDB8
:104C10000E94AC24CF70C093E900CF91089587FB28
:104C2000082E062687FD819567FD61950E94D52691
:104C30000EF4919507FC81950895AA1BBB1B51E1C9
:104C400007C0AA1FBB1FA617B70710F0A61BB70BFC
:104C5000881F991F5A95A9F780959095BC01CD01A1
:104C6000089597FB072E16F4009407D077FD09D01E
:104C70000E941D2607FC05D03EF4909581959F4F1C
:104C80000895709561957F4F0895A1E21A2EAA1B91
:104C9000BB1BFD010DC0AA1FBB1FEE1FFF1FA217EC
:104CA000B307E407F50720F0A21BB30BE40BF50BE9
:104CB000661F771F881F991F1A9469F76095709572
:104CC000809590959B01AC01BD01CF010895EE0F39
:104CD000FF1F0590F491E02D09940E94752633235F
:104CE00012F48A1B9B0B0C948626A29FB001B39FE3
:104CF000C001A39F700D811D1124911DB29F700DE5
:104D0000811D1124911D08950E947526B7FF0895F5
:104D1000821B930B08950E947526A59F900DB49F4A
:104D2000900DA49F800D911D11240895B7FF0C9440
:104D30008B260E948B26821B930B08952F923F9205
:104D40004F925F926F927F928F929F92AF92BF929B
:104D5000CF92DF92EF92FF920F931F93CF93DF9347
:104D6000CDB7DEB7CA1BDB0B0FB6F894DEBF0FBEA4
:104D7000CDBF09942A88398848885F846E847D84F1
:104D80008C849B84AA84B984C884DF80EE80FD80F3
:104D90000C811B81AA81B981CE0FD11D0FB6F89469
:104DA000DEBF0FBECDBFED010895991B79E004C0B1
:104DB000991F961708F0961B881F7A95C9F780955A
:104DC0000895FC014150504030F001900616D1F793
:104DD0003197CF010895882799270895FB01DC01B9
:104DE00004C08D910190801921F441505040C8F7C2
:104DF000881B990B0895F999FECF92BD81BDF89A51
:104E0000992780B50895A6E1B0E044E050E00C9405
:104E10003527A8E1B0E042E050E00C943527262F7A
:104E2000F999FECF92BD81BDF89A019700B40216A0
:104E300039F01FBA20BD0FB6F894FA9AF99A0FBE4E
:104E400008950396272F0E9410270E940F27252FD1
:104E50000E941027242F0C9410270196272F0E94C0
:104E600010270C940F27DC01CB01FC01F999FECF30
:104E700006C0F2BDE1BDF89A319600B40D924150E2
:104E80005040B8F70895F894FFCF690469049A0474
:104E90009A0427054305C904C9044E05DA05E90546
:104EA000E905D024F824E125F824E1252B254C251B
:064EB000E125A325AF255A
:104EB6002802280850011E0A1401010102000900F7
:104EC600090901191A1B1C1D1E1F2021223F1F64E0
:104ED6001F431FD41FCF1F421F01E200E900EA0053
:104EE600B500B600B700CD008301CC008A0192015F
:104EF60094012102230224022502260227022A0205
:104F0600B300B4006F007000818283E200E900EA1A
:104F160000B500B600B700CD008301CC008A01922F
:104F26000194012102230224022502260227022AD5
:104F360002B300B4006F00700081828394973566D7
:104F4600C634000102020202060606090909090919
:104F5600090F0F0F0F0F0F15151518191919191914
:084F660019191919192324007F
:00000001FF
